{
  "_format": "hh-sol-artifact-1",
  "contractName": "RidiZapV1",
  "sourceName": "contracts/RidiZapV1.sol",
  "abi": [
    {
      "inputs": [
        {
          "internalType": "address",
          "name": "_WFTMAddress",
          "type": "address"
        },
        {
          "internalType": "address",
          "name": "_RidiRouter",
          "type": "address"
        },
        {
          "internalType": "uint256",
          "name": "_maxZapReverseRatio",
          "type": "uint256"
        }
      ],
      "stateMutability": "nonpayable",
      "type": "constructor"
    },
    {
      "anonymous": false,
      "inputs": [
        {
          "indexed": true,
          "internalType": "address",
          "name": "tokenAddress",
          "type": "address"
        },
        {
          "indexed": false,
          "internalType": "uint256",
          "name": "amountTokens",
          "type": "uint256"
        }
      ],
      "name": "AdminTokenRecovery",
      "type": "event"
    },
    {
      "anonymous": false,
      "inputs": [
        {
          "indexed": false,
          "internalType": "uint256",
          "name": "maxZapReverseRatio",
          "type": "uint256"
        }
      ],
      "name": "NewMaxZapReverseRatio",
      "type": "event"
    },
    {
      "anonymous": false,
      "inputs": [
        {
          "indexed": true,
          "internalType": "address",
          "name": "previousOwner",
          "type": "address"
        },
        {
          "indexed": true,
          "internalType": "address",
          "name": "newOwner",
          "type": "address"
        }
      ],
      "name": "OwnershipTransferred",
      "type": "event"
    },
    {
      "anonymous": false,
      "inputs": [
        {
          "indexed": true,
          "internalType": "address",
          "name": "tokenToZap",
          "type": "address"
        },
        {
          "indexed": true,
          "internalType": "address",
          "name": "lpToken",
          "type": "address"
        },
        {
          "indexed": false,
          "internalType": "uint256",
          "name": "tokenAmountIn",
          "type": "uint256"
        },
        {
          "indexed": false,
          "internalType": "uint256",
          "name": "lpTokenAmountReceived",
          "type": "uint256"
        },
        {
          "indexed": true,
          "internalType": "address",
          "name": "user",
          "type": "address"
        }
      ],
      "name": "ZapIn",
      "type": "event"
    },
    {
      "anonymous": false,
      "inputs": [
        {
          "indexed": true,
          "internalType": "address",
          "name": "token0ToZap",
          "type": "address"
        },
        {
          "indexed": true,
          "internalType": "address",
          "name": "token1ToZap",
          "type": "address"
        },
        {
          "indexed": false,
          "internalType": "address",
          "name": "lpToken",
          "type": "address"
        },
        {
          "indexed": false,
          "internalType": "uint256",
          "name": "token0AmountIn",
          "type": "uint256"
        },
        {
          "indexed": false,
          "internalType": "uint256",
          "name": "token1AmountIn",
          "type": "uint256"
        },
        {
          "indexed": false,
          "internalType": "uint256",
          "name": "lpTokenAmountReceived",
          "type": "uint256"
        },
        {
          "indexed": true,
          "internalType": "address",
          "name": "user",
          "type": "address"
        }
      ],
      "name": "ZapInRebalancing",
      "type": "event"
    },
    {
      "anonymous": false,
      "inputs": [
        {
          "indexed": true,
          "internalType": "address",
          "name": "lpToken",
          "type": "address"
        },
        {
          "indexed": true,
          "internalType": "address",
          "name": "tokenToReceive",
          "type": "address"
        },
        {
          "indexed": false,
          "internalType": "uint256",
          "name": "lpTokenAmount",
          "type": "uint256"
        },
        {
          "indexed": false,
          "internalType": "uint256",
          "name": "tokenAmountReceived",
          "type": "uint256"
        },
        {
          "indexed": true,
          "internalType": "address",
          "name": "user",
          "type": "address"
        }
      ],
      "name": "ZapOut",
      "type": "event"
    },
    {
      "inputs": [],
      "name": "MAX_INT",
      "outputs": [
        {
          "internalType": "uint256",
          "name": "",
          "type": "uint256"
        }
      ],
      "stateMutability": "view",
      "type": "function"
    },
    {
      "inputs": [],
      "name": "MINIMUM_AMOUNT",
      "outputs": [
        {
          "internalType": "uint256",
          "name": "",
          "type": "uint256"
        }
      ],
      "stateMutability": "view",
      "type": "function"
    },
    {
      "inputs": [],
      "name": "RidiRouter",
      "outputs": [
        {
          "internalType": "contract IRidiRouter02",
          "name": "",
          "type": "address"
        }
      ],
      "stateMutability": "view",
      "type": "function"
    },
    {
      "inputs": [],
      "name": "WFTM",
      "outputs": [
        {
          "internalType": "contract IWETH",
          "name": "",
          "type": "address"
        }
      ],
      "stateMutability": "view",
      "type": "function"
    },
    {
      "inputs": [
        {
          "internalType": "address",
          "name": "_token0ToZap",
          "type": "address"
        },
        {
          "internalType": "address",
          "name": "_token1ToZap",
          "type": "address"
        },
        {
          "internalType": "uint256",
          "name": "_token0AmountIn",
          "type": "uint256"
        },
        {
          "internalType": "uint256",
          "name": "_token1AmountIn",
          "type": "uint256"
        },
        {
          "internalType": "address",
          "name": "_lpToken",
          "type": "address"
        }
      ],
      "name": "estimateZapInRebalancingSwap",
      "outputs": [
        {
          "internalType": "uint256",
          "name": "swapAmountIn",
          "type": "uint256"
        },
        {
          "internalType": "uint256",
          "name": "swapAmountOut",
          "type": "uint256"
        },
        {
          "internalType": "bool",
          "name": "sellToken0",
          "type": "bool"
        }
      ],
      "stateMutability": "view",
      "type": "function"
    },
    {
      "inputs": [
        {
          "internalType": "address",
          "name": "_tokenToZap",
          "type": "address"
        },
        {
          "internalType": "uint256",
          "name": "_tokenAmountIn",
          "type": "uint256"
        },
        {
          "internalType": "address",
          "name": "_lpToken",
          "type": "address"
        }
      ],
      "name": "estimateZapInSwap",
      "outputs": [
        {
          "internalType": "uint256",
          "name": "swapAmountIn",
          "type": "uint256"
        },
        {
          "internalType": "uint256",
          "name": "swapAmountOut",
          "type": "uint256"
        },
        {
          "internalType": "address",
          "name": "swapTokenOut",
          "type": "address"
        }
      ],
      "stateMutability": "view",
      "type": "function"
    },
    {
      "inputs": [
        {
          "internalType": "address",
          "name": "_lpToken",
          "type": "address"
        },
        {
          "internalType": "uint256",
          "name": "_lpTokenAmount",
          "type": "uint256"
        },
        {
          "internalType": "address",
          "name": "_tokenToReceive",
          "type": "address"
        }
      ],
      "name": "estimateZapOutSwap",
      "outputs": [
        {
          "internalType": "uint256",
          "name": "swapAmountIn",
          "type": "uint256"
        },
        {
          "internalType": "uint256",
          "name": "swapAmountOut",
          "type": "uint256"
        },
        {
          "internalType": "address",
          "name": "swapTokenOut",
          "type": "address"
        }
      ],
      "stateMutability": "view",
      "type": "function"
    },
    {
      "inputs": [],
      "name": "maxZapReverseRatio",
      "outputs": [
        {
          "internalType": "uint256",
          "name": "",
          "type": "uint256"
        }
      ],
      "stateMutability": "view",
      "type": "function"
    },
    {
      "inputs": [],
      "name": "owner",
      "outputs": [
        {
          "internalType": "address",
          "name": "",
          "type": "address"
        }
      ],
      "stateMutability": "view",
      "type": "function"
    },
    {
      "inputs": [
        {
          "internalType": "address",
          "name": "_tokenAddress",
          "type": "address"
        },
        {
          "internalType": "uint256",
          "name": "_tokenAmount",
          "type": "uint256"
        }
      ],
      "name": "recoverWrongTokens",
      "outputs": [],
      "stateMutability": "nonpayable",
      "type": "function"
    },
    {
      "inputs": [],
      "name": "renounceOwnership",
      "outputs": [],
      "stateMutability": "nonpayable",
      "type": "function"
    },
    {
      "inputs": [
        {
          "internalType": "address",
          "name": "newOwner",
          "type": "address"
        }
      ],
      "name": "transferOwnership",
      "outputs": [],
      "stateMutability": "nonpayable",
      "type": "function"
    },
    {
      "inputs": [
        {
          "internalType": "uint256",
          "name": "_maxZapInverseRatio",
          "type": "uint256"
        }
      ],
      "name": "updateMaxZapInverseRatio",
      "outputs": [],
      "stateMutability": "nonpayable",
      "type": "function"
    },
    {
      "inputs": [
        {
          "internalType": "address",
          "name": "_lpToken",
          "type": "address"
        },
        {
          "internalType": "uint256",
          "name": "_tokenAmountOutMin",
          "type": "uint256"
        }
      ],
      "name": "zapInFTM",
      "outputs": [],
      "stateMutability": "payable",
      "type": "function"
    },
    {
      "inputs": [
        {
          "internalType": "address",
          "name": "_token1ToZap",
          "type": "address"
        },
        {
          "internalType": "uint256",
          "name": "_token1AmountIn",
          "type": "uint256"
        },
        {
          "internalType": "address",
          "name": "_lpToken",
          "type": "address"
        },
        {
          "internalType": "uint256",
          "name": "_tokenAmountInMax",
          "type": "uint256"
        },
        {
          "internalType": "uint256",
          "name": "_tokenAmountOutMin",
          "type": "uint256"
        },
        {
          "internalType": "bool",
          "name": "_isToken0Sold",
          "type": "bool"
        }
      ],
      "name": "zapInFTMRebalancing",
      "outputs": [],
      "stateMutability": "payable",
      "type": "function"
    },
    {
      "inputs": [
        {
          "internalType": "address",
          "name": "_tokenToZap",
          "type": "address"
        },
        {
          "internalType": "uint256",
          "name": "_tokenAmountIn",
          "type": "uint256"
        },
        {
          "internalType": "address",
          "name": "_lpToken",
          "type": "address"
        },
        {
          "internalType": "uint256",
          "name": "_tokenAmountOutMin",
          "type": "uint256"
        }
      ],
      "name": "zapInToken",
      "outputs": [],
      "stateMutability": "nonpayable",
      "type": "function"
    },
    {
      "inputs": [
        {
          "internalType": "address",
          "name": "_token0ToZap",
          "type": "address"
        },
        {
          "internalType": "address",
          "name": "_token1ToZap",
          "type": "address"
        },
        {
          "internalType": "uint256",
          "name": "_token0AmountIn",
          "type": "uint256"
        },
        {
          "internalType": "uint256",
          "name": "_token1AmountIn",
          "type": "uint256"
        },
        {
          "internalType": "address",
          "name": "_lpToken",
          "type": "address"
        },
        {
          "internalType": "uint256",
          "name": "_tokenAmountInMax",
          "type": "uint256"
        },
        {
          "internalType": "uint256",
          "name": "_tokenAmountOutMin",
          "type": "uint256"
        },
        {
          "internalType": "bool",
          "name": "_isToken0Sold",
          "type": "bool"
        }
      ],
      "name": "zapInTokenRebalancing",
      "outputs": [],
      "stateMutability": "nonpayable",
      "type": "function"
    },
    {
      "inputs": [
        {
          "internalType": "address",
          "name": "_lpToken",
          "type": "address"
        },
        {
          "internalType": "uint256",
          "name": "_lpTokenAmount",
          "type": "uint256"
        },
        {
          "internalType": "uint256",
          "name": "_tokenAmountOutMin",
          "type": "uint256"
        }
      ],
      "name": "zapOutFTM",
      "outputs": [],
      "stateMutability": "nonpayable",
      "type": "function"
    },
    {
      "inputs": [
        {
          "internalType": "address",
          "name": "_lpToken",
          "type": "address"
        },
        {
          "internalType": "address",
          "name": "_tokenToReceive",
          "type": "address"
        },
        {
          "internalType": "uint256",
          "name": "_lpTokenAmount",
          "type": "uint256"
        },
        {
          "internalType": "uint256",
          "name": "_tokenAmountOutMin",
          "type": "uint256"
        }
      ],
      "name": "zapOutToken",
      "outputs": [],
      "stateMutability": "nonpayable",
      "type": "function"
    },
    {
      "stateMutability": "payable",
      "type": "receive"
    }
  ],
  "bytecode": "0x60806040523480156200001157600080fd5b5060405162005a5d38038062005a5d833981016040819052620000349162000102565b6200003f3362000095565b60018055600680546001600160a01b039485166001600160a01b03199182168117909255600280548216909217909155600580549390941692811683179093556003805490931690911790915560045562000142565b600080546001600160a01b038381166001600160a01b0319831681178455604051919092169283917f8be0079c531659141344cd1fd0a4f28419497f9722a3daafe3b4186f6b6457e09190a35050565b80516001600160a01b0381168114620000fd57600080fd5b919050565b60008060006060848603121562000117578283fd5b6200012284620000e5565b92506200013260208501620000e5565b9150604084015190509250925092565b61590b80620001526000396000f3fe6080604052600436106101485760003560e01c80633c3f88a9116100c057806384b73115116100745780638da5cb5b116100595780638da5cb5b1461041d578063b421e91e14610448578063f2fde38b1461046857600080fd5b806384b73115146103dd57806387e3f21c146103fd57600080fd5b80635f4a6dab116100a55780635f4a6dab14610378578063715018a61461038b57806382c98b2d146103a057600080fd5b80633c3f88a91461032b5780633f138d4b1461035857600080fd5b806321dbe876116101175780632b4652eb116100fc5780632b4652eb1461029a5780632f883da4146102ba5780633b0a48bb1461030b57600080fd5b806321dbe87614610232578063257d9bb81461028457600080fd5b80630804ce13146101a2578063098d3228146101b55780630f4e4e63146101fc57806320cfc6591461021257600080fd5b3661019d5760065473ffffffffffffffffffffffffffffffffffffffff16331461019b577f4e487b7100000000000000000000000000000000000000000000000000000000600052600160045260246000fd5b005b600080fd5b61019b6101b0366004615428565b610488565b3480156101c157600080fd5b506101e97fffffffffffffffffffffffffffffffffffffffffffffffffffffffffffffffff81565b6040519081526020015b60405180910390f35b34801561020857600080fd5b506101e960045481565b34801561021e57600080fd5b5061019b61022d36600461548e565b61064c565b34801561023e57600080fd5b5060025461025f9073ffffffffffffffffffffffffffffffffffffffff1681565b60405173ffffffffffffffffffffffffffffffffffffffff90911681526020016101f3565b34801561029057600080fd5b506101e96103e881565b3480156102a657600080fd5b5061019b6102b53660046155ff565b6108bc565b3480156102c657600080fd5b506102da6102d53660046153a0565b610978565b60408051938452602084019290925273ffffffffffffffffffffffffffffffffffffffff16908201526060016101f3565b34801561031757600080fd5b506102da6103263660046153a0565b610ee8565b34801561033757600080fd5b5060035461025f9073ffffffffffffffffffffffffffffffffffffffff1681565b34801561036457600080fd5b5061019b610373366004615375565b611329565b61019b610386366004615375565b61141f565b34801561039757600080fd5b5061019b6115a2565b3480156103ac57600080fd5b506103c06103bb366004615293565b61162f565b6040805193845260208401929092521515908201526060016101f3565b3480156103e957600080fd5b5061019b6103f836600461524e565b611e61565b34801561040957600080fd5b5061019b6104183660046153e1565b611f7a565b34801561042957600080fd5b5060005473ffffffffffffffffffffffffffffffffffffffff1661025f565b34801561045457600080fd5b5061019b6104633660046152f1565b61209d565b34801561047457600080fd5b5061019b610483366004615216565b6121df565b600260015414156104fa576040517f08c379a000000000000000000000000000000000000000000000000000000000815260206004820152601f60248201527f5265656e7472616e637947756172643a207265656e7472616e742063616c6c0060448201526064015b60405180910390fd5b6002600181905554604080517fd0e30db0000000000000000000000000000000000000000000000000000000008152905173ffffffffffffffffffffffffffffffffffffffff9092169163d0e30db0913491600480830192600092919082900301818588803b15801561056c57600080fd5b505af1158015610580573d6000803e3d6000fd5b506105a99350505073ffffffffffffffffffffffffffffffffffffffff8816905033308861230f565b6006546000906105d59073ffffffffffffffffffffffffffffffffffffffff16883489898989896123f1565b6040805173ffffffffffffffffffffffffffffffffffffffff8881168252346020830152918101899052606081018390529192503391908916906000907f4ff29158e89c3af93365bf0fa1d14c5768109fb139f24b97c8a7d510b2d5e3f69060800160405180910390a45050600180555050505050565b600260015414156106b9576040517f08c379a000000000000000000000000000000000000000000000000000000000815260206004820152601f60248201527f5265656e7472616e637947756172643a207265656e7472616e742063616c6c0060448201526064016104f1565b60026001556106e073ffffffffffffffffffffffffffffffffffffffff841633858561230f565b60065460009061070890859073ffffffffffffffffffffffffffffffffffffffff1684613296565b6002546040517f2e1a7d4d0000000000000000000000000000000000000000000000000000000081526004810183905291925073ffffffffffffffffffffffffffffffffffffffff1690632e1a7d4d90602401600060405180830381600087803b15801561077557600080fd5b505af1158015610789573d6000803e3d6000fd5b50506040805160008082526020820192839052935033925084916107ad919061567f565b60006040518083038185875af1925050503d80600081146107ea576040519150601f19603f3d011682016040523d82523d6000602084013e6107ef565b606091505b505090508061085a576040517f08c379a000000000000000000000000000000000000000000000000000000000815260206004820152601260248201527f46544d3a207472616e73666572206661696c000000000000000000000000000060448201526064016104f1565b6040805185815260208101849052339160009173ffffffffffffffffffffffffffffffffffffffff8916917f20ef8a4c975ec6c340089d8171a0f9c6a6324b11e3ecc4353155186f6c638c2891015b60405180910390a4505060018055505050565b60005473ffffffffffffffffffffffffffffffffffffffff16331461093d576040517f08c379a000000000000000000000000000000000000000000000000000000000815260206004820181905260248201527f4f776e61626c653a2063616c6c6572206973206e6f7420746865206f776e657260448201526064016104f1565b60048190556040518181527fc7e29c44236bfea8bef0d337e382f5f27ec5bc4d425d82437f115f9b59d2ba799060200160405180910390a150565b6000806000808673ffffffffffffffffffffffffffffffffffffffff16630dfe16816040518163ffffffff1660e01b815260040160206040518083038186803b1580156109c457600080fd5b505afa1580156109d8573d6000803e3d6000fd5b505050506040513d601f19601f820116820180604052508101906109fc9190615232565b905060008773ffffffffffffffffffffffffffffffffffffffff1663d21220a76040518163ffffffff1660e01b815260040160206040518083038186803b158015610a4657600080fd5b505afa158015610a5a573d6000803e3d6000fd5b505050506040513d601f19601f82011682018060405250810190610a7e9190615232565b90508173ffffffffffffffffffffffffffffffffffffffff168673ffffffffffffffffffffffffffffffffffffffff161480610ae557508073ffffffffffffffffffffffffffffffffffffffff168673ffffffffffffffffffffffffffffffffffffffff16145b610b4b576040517f08c379a000000000000000000000000000000000000000000000000000000000815260206004820152601460248201527f5a61703a20546f6b656e206e6f7420696e204c5000000000000000000000000060448201526064016104f1565b6000808973ffffffffffffffffffffffffffffffffffffffff16630902f1ac6040518163ffffffff1660e01b815260040160606040518083038186803b158015610b9457600080fd5b505afa158015610ba8573d6000803e3d6000fd5b505050506040513d601f19601f82011682018060405250810190610bcc91906155bc565b506dffffffffffffffffffffffffffff1691506dffffffffffffffffffffffffffff1691508773ffffffffffffffffffffffffffffffffffffffff168373ffffffffffffffffffffffffffffffffffffffff161415610d825760008a73ffffffffffffffffffffffffffffffffffffffff166318160ddd6040518163ffffffff1660e01b815260040160206040518083038186803b158015610c6d57600080fd5b505afa158015610c81573d6000803e3d6000fd5b505050506040513d601f19601f82011682018060405250810190610ca59190615617565b610caf848c6157c7565b610cb9919061578e565b9050610cc6818484613a28565b6003546040517f054d50d400000000000000000000000000000000000000000000000000000000815260048101839052602481018690526044810185905291995073ffffffffffffffffffffffffffffffffffffffff169063054d50d49060640160206040518083038186803b158015610d3f57600080fd5b505afa158015610d53573d6000803e3d6000fd5b505050506040513d601f19601f82011682018060405250810190610d779190615617565b965084955050610edb565b60008a73ffffffffffffffffffffffffffffffffffffffff166318160ddd6040518163ffffffff1660e01b815260040160206040518083038186803b158015610dca57600080fd5b505afa158015610dde573d6000803e3d6000fd5b505050506040513d601f19601f82011682018060405250810190610e029190615617565b610e0c838c6157c7565b610e16919061578e565b9050610e23818385613a28565b6003546040517f054d50d400000000000000000000000000000000000000000000000000000000815260048101839052602481018590526044810186905291995073ffffffffffffffffffffffffffffffffffffffff169063054d50d49060640160206040518083038186803b158015610e9c57600080fd5b505afa158015610eb0573d6000803e3d6000fd5b505050506040513d601f19601f82011682018060405250810190610ed49190615617565b9650839550505b5050505093509350939050565b6000806000808473ffffffffffffffffffffffffffffffffffffffff16630dfe16816040518163ffffffff1660e01b815260040160206040518083038186803b158015610f3457600080fd5b505afa158015610f48573d6000803e3d6000fd5b505050506040513d601f19601f82011682018060405250810190610f6c9190615232565b905060008573ffffffffffffffffffffffffffffffffffffffff1663d21220a76040518163ffffffff1660e01b815260040160206040518083038186803b158015610fb657600080fd5b505afa158015610fca573d6000803e3d6000fd5b505050506040513d601f19601f82011682018060405250810190610fee9190615232565b90508173ffffffffffffffffffffffffffffffffffffffff168873ffffffffffffffffffffffffffffffffffffffff16148061105557508073ffffffffffffffffffffffffffffffffffffffff168873ffffffffffffffffffffffffffffffffffffffff16145b6110bb576040517f08c379a000000000000000000000000000000000000000000000000000000000815260206004820152601160248201527f5a61703a2057726f6e6720746f6b656e7300000000000000000000000000000060448201526064016104f1565b6000808773ffffffffffffffffffffffffffffffffffffffff16630902f1ac6040518163ffffffff1660e01b815260040160606040518083038186803b15801561110457600080fd5b505afa158015611118573d6000803e3d6000fd5b505050506040513d601f19601f8201168201806040525081019061113c91906155bc565b506dffffffffffffffffffffffffffff1691506dffffffffffffffffffffffffffff1691508973ffffffffffffffffffffffffffffffffffffffff168473ffffffffffffffffffffffffffffffffffffffff16141561125b578294506111a3898383613a28565b6003546040517f054d50d400000000000000000000000000000000000000000000000000000000815260048101839052602481018590526044810184905291985073ffffffffffffffffffffffffffffffffffffffff169063054d50d49060640160206040518083038186803b15801561121c57600080fd5b505afa158015611230573d6000803e3d6000fd5b505050506040513d601f19601f820116820180604052508101906112549190615617565b9550610edb565b839450611269898284613a28565b6003546040517f054d50d400000000000000000000000000000000000000000000000000000000815260048101839052602481018490526044810185905291985073ffffffffffffffffffffffffffffffffffffffff169063054d50d49060640160206040518083038186803b1580156112e257600080fd5b505afa1580156112f6573d6000803e3d6000fd5b505050506040513d601f19601f8201168201806040525081019061131a9190615617565b95505050505093509350939050565b60005473ffffffffffffffffffffffffffffffffffffffff1633146113aa576040517f08c379a000000000000000000000000000000000000000000000000000000000815260206004820181905260248201527f4f776e61626c653a2063616c6c6572206973206e6f7420746865206f776e657260448201526064016104f1565b6113cb73ffffffffffffffffffffffffffffffffffffffff83163383613bf8565b8173ffffffffffffffffffffffffffffffffffffffff167f74545154aac348a3eac92596bd1971957ca94795f4e954ec5f613b55fab781298260405161141391815260200190565b60405180910390a25050565b6002600154141561148c576040517f08c379a000000000000000000000000000000000000000000000000000000000815260206004820152601f60248201527f5265656e7472616e637947756172643a207265656e7472616e742063616c6c0060448201526064016104f1565b6002600181905554604080517fd0e30db0000000000000000000000000000000000000000000000000000000008152905173ffffffffffffffffffffffffffffffffffffffff9092169163d0e30db0913491600480830192600092919082900301818588803b1580156114fe57600080fd5b505af1158015611512573d6000803e3d6000fd5b505060065460009350611540925073ffffffffffffffffffffffffffffffffffffffff169050348585613c53565b6040805134815260208101839052919250339173ffffffffffffffffffffffffffffffffffffffff8616916000917fa71185a0ff368de4e9e445d8601c4fbd50d9b674e4e43f5f8feafb8d64a2e13e910160405180910390a450506001805550565b60005473ffffffffffffffffffffffffffffffffffffffff163314611623576040517f08c379a000000000000000000000000000000000000000000000000000000000815260206004820181905260248201527f4f776e61626c653a2063616c6c6572206973206e6f7420746865206f776e657260448201526064016104f1565b61162d6000614584565b565b60008060008373ffffffffffffffffffffffffffffffffffffffff16630dfe16816040518163ffffffff1660e01b815260040160206040518083038186803b15801561167a57600080fd5b505afa15801561168e573d6000803e3d6000fd5b505050506040513d601f19601f820116820180604052508101906116b29190615232565b73ffffffffffffffffffffffffffffffffffffffff168873ffffffffffffffffffffffffffffffffffffffff16148061179357508373ffffffffffffffffffffffffffffffffffffffff1663d21220a76040518163ffffffff1660e01b815260040160206040518083038186803b15801561172c57600080fd5b505afa158015611740573d6000803e3d6000fd5b505050506040513d601f19601f820116820180604052508101906117649190615232565b73ffffffffffffffffffffffffffffffffffffffff168873ffffffffffffffffffffffffffffffffffffffff16145b6117f9576040517f08c379a000000000000000000000000000000000000000000000000000000000815260206004820152601160248201527f5a61703a2057726f6e6720746f6b656e3000000000000000000000000000000060448201526064016104f1565b8373ffffffffffffffffffffffffffffffffffffffff16630dfe16816040518163ffffffff1660e01b815260040160206040518083038186803b15801561183f57600080fd5b505afa158015611853573d6000803e3d6000fd5b505050506040513d601f19601f820116820180604052508101906118779190615232565b73ffffffffffffffffffffffffffffffffffffffff168773ffffffffffffffffffffffffffffffffffffffff16148061195857508373ffffffffffffffffffffffffffffffffffffffff1663d21220a76040518163ffffffff1660e01b815260040160206040518083038186803b1580156118f157600080fd5b505afa158015611905573d6000803e3d6000fd5b505050506040513d601f19601f820116820180604052508101906119299190615232565b73ffffffffffffffffffffffffffffffffffffffff168773ffffffffffffffffffffffffffffffffffffffff16145b6119be576040517f08c379a000000000000000000000000000000000000000000000000000000000815260206004820152601160248201527f5a61703a2057726f6e6720746f6b656e3100000000000000000000000000000060448201526064016104f1565b8673ffffffffffffffffffffffffffffffffffffffff168873ffffffffffffffffffffffffffffffffffffffff161415611a54576040517f08c379a000000000000000000000000000000000000000000000000000000000815260206004820152601060248201527f5a61703a2053616d6520746f6b656e730000000000000000000000000000000060448201526064016104f1565b6000808573ffffffffffffffffffffffffffffffffffffffff16630902f1ac6040518163ffffffff1660e01b815260040160606040518083038186803b158015611a9d57600080fd5b505afa158015611ab1573d6000803e3d6000fd5b505050506040513d601f19601f82011682018060405250810190611ad591906155bc565b506dffffffffffffffffffffffffffff1691506dffffffffffffffffffffffffffff1691508573ffffffffffffffffffffffffffffffffffffffff16630dfe16816040518163ffffffff1660e01b815260040160206040518083038186803b158015611b4057600080fd5b505afa158015611b54573d6000803e3d6000fd5b505050506040513d601f19601f82011682018060405250810190611b789190615232565b73ffffffffffffffffffffffffffffffffffffffff168a73ffffffffffffffffffffffffffffffffffffffff161415611d0257611bb582886157c7565b611bbf828a6157c7565b11611bcb576000611bce565b60015b9250611bdd88888484876145f9565b94508215611c9d576003546040517f054d50d400000000000000000000000000000000000000000000000000000000815260048101879052602481018490526044810183905273ffffffffffffffffffffffffffffffffffffffff9091169063054d50d4906064015b60206040518083038186803b158015611c5e57600080fd5b505afa158015611c72573d6000803e3d6000fd5b505050506040513d601f19601f82011682018060405250810190611c969190615617565b9350611e54565b6003546040517f054d50d400000000000000000000000000000000000000000000000000000000815260048101879052602481018390526044810184905273ffffffffffffffffffffffffffffffffffffffff9091169063054d50d490606401611c46565b611d0c81886157c7565b611d16838a6157c7565b11611d22576000611d25565b60015b9250611d3488888385876145f9565b94508215611da1576003546040517f054d50d400000000000000000000000000000000000000000000000000000000815260048101879052602481018390526044810184905273ffffffffffffffffffffffffffffffffffffffff9091169063054d50d490606401611c46565b6003546040517f054d50d400000000000000000000000000000000000000000000000000000000815260048101879052602481018490526044810183905273ffffffffffffffffffffffffffffffffffffffff9091169063054d50d49060640160206040518083038186803b158015611e1957600080fd5b505afa158015611e2d573d6000803e3d6000fd5b505050506040513d601f19601f82011682018060405250810190611e519190615617565b93505b5050955095509592505050565b60026001541415611ece576040517f08c379a000000000000000000000000000000000000000000000000000000000815260206004820152601f60248201527f5265656e7472616e637947756172643a207265656e7472616e742063616c6c0060448201526064016104f1565b6002600155611ef573ffffffffffffffffffffffffffffffffffffffff851633868561230f565b6000611f02858584613296565b9050611f2573ffffffffffffffffffffffffffffffffffffffff85163383613bf8565b6040805184815260208101839052339173ffffffffffffffffffffffffffffffffffffffff87811692908916917f20ef8a4c975ec6c340089d8171a0f9c6a6324b11e3ecc4353155186f6c638c2891016108a9565b60026001541415611fe7576040517f08c379a000000000000000000000000000000000000000000000000000000000815260206004820152601f60248201527f5265656e7472616e637947756172643a207265656e7472616e742063616c6c0060448201526064016104f1565b600260015561200e73ffffffffffffffffffffffffffffffffffffffff851633308661230f565b600061201c85858585613c53565b90503373ffffffffffffffffffffffffffffffffffffffff168373ffffffffffffffffffffffffffffffffffffffff168673ffffffffffffffffffffffffffffffffffffffff167fa71185a0ff368de4e9e445d8601c4fbd50d9b674e4e43f5f8feafb8d64a2e13e87856040516108a9929190918252602082015260400190565b6002600154141561210a576040517f08c379a000000000000000000000000000000000000000000000000000000000815260206004820152601f60248201527f5265656e7472616e637947756172643a207265656e7472616e742063616c6c0060448201526064016104f1565b600260015561213173ffffffffffffffffffffffffffffffffffffffff891633308961230f565b61215373ffffffffffffffffffffffffffffffffffffffff881633308861230f565b600061216589898989898989896123f1565b6040805173ffffffffffffffffffffffffffffffffffffffff8881168252602082018b90529181018990526060810183905291925033918a8216918c16907f4ff29158e89c3af93365bf0fa1d14c5768109fb139f24b97c8a7d510b2d5e3f69060800160405180910390a450506001805550505050505050565b60005473ffffffffffffffffffffffffffffffffffffffff163314612260576040517f08c379a000000000000000000000000000000000000000000000000000000000815260206004820181905260248201527f4f776e61626c653a2063616c6c6572206973206e6f7420746865206f776e657260448201526064016104f1565b73ffffffffffffffffffffffffffffffffffffffff8116612303576040517f08c379a000000000000000000000000000000000000000000000000000000000815260206004820152602660248201527f4f776e61626c653a206e6577206f776e657220697320746865207a65726f206160448201527f646472657373000000000000000000000000000000000000000000000000000060648201526084016104f1565b61230c81614584565b50565b60405173ffffffffffffffffffffffffffffffffffffffff808516602483015283166044820152606481018290526123eb9085907f23b872dd00000000000000000000000000000000000000000000000000000000906084015b604080517fffffffffffffffffffffffffffffffffffffffffffffffffffffffffffffffe08184030181529190526020810180517bffffffffffffffffffffffffffffffffffffffffffffffffffffffff167fffffffff0000000000000000000000000000000000000000000000000000000090931692909217909152614ada565b50505050565b60008473ffffffffffffffffffffffffffffffffffffffff16630dfe16816040518163ffffffff1660e01b815260040160206040518083038186803b15801561243957600080fd5b505afa15801561244d573d6000803e3d6000fd5b505050506040513d601f19601f820116820180604052508101906124719190615232565b73ffffffffffffffffffffffffffffffffffffffff168973ffffffffffffffffffffffffffffffffffffffff16148061255257508473ffffffffffffffffffffffffffffffffffffffff1663d21220a76040518163ffffffff1660e01b815260040160206040518083038186803b1580156124eb57600080fd5b505afa1580156124ff573d6000803e3d6000fd5b505050506040513d601f19601f820116820180604052508101906125239190615232565b73ffffffffffffffffffffffffffffffffffffffff168973ffffffffffffffffffffffffffffffffffffffff16145b6125b8576040517f08c379a000000000000000000000000000000000000000000000000000000000815260206004820152601160248201527f5a61703a2057726f6e6720746f6b656e3000000000000000000000000000000060448201526064016104f1565b8473ffffffffffffffffffffffffffffffffffffffff16630dfe16816040518163ffffffff1660e01b815260040160206040518083038186803b1580156125fe57600080fd5b505afa158015612612573d6000803e3d6000fd5b505050506040513d601f19601f820116820180604052508101906126369190615232565b73ffffffffffffffffffffffffffffffffffffffff168873ffffffffffffffffffffffffffffffffffffffff16148061271757508473ffffffffffffffffffffffffffffffffffffffff1663d21220a76040518163ffffffff1660e01b815260040160206040518083038186803b1580156126b057600080fd5b505afa1580156126c4573d6000803e3d6000fd5b505050506040513d601f19601f820116820180604052508101906126e89190615232565b73ffffffffffffffffffffffffffffffffffffffff168873ffffffffffffffffffffffffffffffffffffffff16145b61277d576040517f08c379a000000000000000000000000000000000000000000000000000000000815260206004820152601160248201527f5a61703a2057726f6e6720746f6b656e3100000000000000000000000000000060448201526064016104f1565b8773ffffffffffffffffffffffffffffffffffffffff168973ffffffffffffffffffffffffffffffffffffffff161415612813576040517f08c379a000000000000000000000000000000000000000000000000000000000815260206004820152601060248201527f5a61703a2053616d6520746f6b656e730000000000000000000000000000000060448201526064016104f1565b60008060008773ffffffffffffffffffffffffffffffffffffffff16630902f1ac6040518163ffffffff1660e01b815260040160606040518083038186803b15801561285e57600080fd5b505afa158015612872573d6000803e3d6000fd5b505050506040513d601f19601f8201168201806040525081019061289691906155bc565b506dffffffffffffffffffffffffffff1691506dffffffffffffffffffffffffffff1691506103e882101580156128cf57506103e88110155b612935576040517f08c379a000000000000000000000000000000000000000000000000000000000815260206004820152601560248201527f5a61703a20526573657276657320746f6f206c6f77000000000000000000000060448201526064016104f1565b8773ffffffffffffffffffffffffffffffffffffffff16630dfe16816040518163ffffffff1660e01b815260040160206040518083038186803b15801561297b57600080fd5b505afa15801561298f573d6000803e3d6000fd5b505050506040513d601f19601f820116820180604052508101906129b39190615232565b73ffffffffffffffffffffffffffffffffffffffff168c73ffffffffffffffffffffffffffffffffffffffff161415612a70576129f38a8a8484896145f9565b600454909350612a03848461578e565b1015612a6b576040517f08c379a000000000000000000000000000000000000000000000000000000000815260206004820152601f60248201527f5a61703a205175616e7469747920686967686572207468616e206c696d69740060448201526064016104f1565b612af5565b612a7d8a8a8385896145f9565b600454909350612a8d848361578e565b1015612af5576040517f08c379a000000000000000000000000000000000000000000000000000000000815260206004820152601f60248201527f5a61703a205175616e7469747920686967686572207468616e206c696d69740060448201526064016104f1565b505084811115612b61576040517f08c379a000000000000000000000000000000000000000000000000000000000815260206004820152601c60248201527f5a61703a20416d6f756e7420746f207377617020746f6f20686967680000000060448201526064016104f1565b6040805160028082526060820183526000926020830190803683370190505090508315612c80578a81600081518110612bc3577f4e487b7100000000000000000000000000000000000000000000000000000000600052603260045260246000fd5b602002602001019073ffffffffffffffffffffffffffffffffffffffff16908173ffffffffffffffffffffffffffffffffffffffff16815250508981600181518110612c38577f4e487b7100000000000000000000000000000000000000000000000000000000600052603260045260246000fd5b602002602001019073ffffffffffffffffffffffffffffffffffffffff16908173ffffffffffffffffffffffffffffffffffffffff1681525050612c7b8b614be6565b612d73565b8981600081518110612cbb577f4e487b7100000000000000000000000000000000000000000000000000000000600052603260045260246000fd5b602002602001019073ffffffffffffffffffffffffffffffffffffffff16908173ffffffffffffffffffffffffffffffffffffffff16815250508a81600181518110612d30577f4e487b7100000000000000000000000000000000000000000000000000000000600052603260045260246000fd5b602002602001019073ffffffffffffffffffffffffffffffffffffffff16908173ffffffffffffffffffffffffffffffffffffffff1681525050612d738a614be6565b6003546040517f38ed173900000000000000000000000000000000000000000000000000000000815260009173ffffffffffffffffffffffffffffffffffffffff16906338ed173990612dd29086908a908790309042906004016156ec565b600060405180830381600087803b158015612dec57600080fd5b505af1158015612e00573d6000803e3d6000fd5b505050506040513d6000823e601f3d9081017fffffffffffffffffffffffffffffffffffffffffffffffffffffffffffffffe0168201604052612e4691908101906154c2565b9050841561306d57612e578b614be6565b600354825173ffffffffffffffffffffffffffffffffffffffff9091169063e8e33700908490600090612eb3577f4e487b7100000000000000000000000000000000000000000000000000000000600052603260045260246000fd5b602002602001015184600181518110612ef5577f4e487b7100000000000000000000000000000000000000000000000000000000600052603260045260246000fd5b602002602001015184600081518110612f37577f4e487b7100000000000000000000000000000000000000000000000000000000600052603260045260246000fd5b60200260200101518e612f4a9190615804565b85600181518110612f84577f4e487b7100000000000000000000000000000000000000000000000000000000600052603260045260246000fd5b60200260200101518e612f979190615776565b6040517fffffffff0000000000000000000000000000000000000000000000000000000060e087901b16815273ffffffffffffffffffffffffffffffffffffffff94851660048201529390921660248401526044830152606482015260016084820181905260a48201523360c48201524260e482015261010401606060405180830381600087803b15801561302b57600080fd5b505af115801561303f573d6000803e3d6000fd5b505050506040513d601f19601f820116820180604052508101906130639190615652565b9550613287915050565b6130768c614be6565b600354825173ffffffffffffffffffffffffffffffffffffffff9091169063e8e337009084906000906130d2577f4e487b7100000000000000000000000000000000000000000000000000000000600052603260045260246000fd5b602002602001015184600181518110613114577f4e487b7100000000000000000000000000000000000000000000000000000000600052603260045260246000fd5b602002602001015184600081518110613156577f4e487b7100000000000000000000000000000000000000000000000000000000600052603260045260246000fd5b60200260200101518d6131699190615804565b856001815181106131a3577f4e487b7100000000000000000000000000000000000000000000000000000000600052603260045260246000fd5b60200260200101518f6131b69190615776565b6040517fffffffff0000000000000000000000000000000000000000000000000000000060e087901b16815273ffffffffffffffffffffffffffffffffffffffff94851660048201529390921660248401526044830152606482015260016084820181905260a48201523360c48201524260e482015261010401606060405180830381600087803b15801561324a57600080fd5b505af115801561325e573d6000803e3d6000fd5b505050506040513d601f19601f820116820180604052508101906132829190615652565b955050505b50505098975050505050505050565b6000808473ffffffffffffffffffffffffffffffffffffffff16630dfe16816040518163ffffffff1660e01b815260040160206040518083038186803b1580156132df57600080fd5b505afa1580156132f3573d6000803e3d6000fd5b505050506040513d601f19601f820116820180604052508101906133179190615232565b905060008573ffffffffffffffffffffffffffffffffffffffff1663d21220a76040518163ffffffff1660e01b815260040160206040518083038186803b15801561336157600080fd5b505afa158015613375573d6000803e3d6000fd5b505050506040513d601f19601f820116820180604052508101906133999190615232565b90508173ffffffffffffffffffffffffffffffffffffffff168573ffffffffffffffffffffffffffffffffffffffff16148061340057508073ffffffffffffffffffffffffffffffffffffffff168573ffffffffffffffffffffffffffffffffffffffff16145b613466576040517f08c379a000000000000000000000000000000000000000000000000000000000815260206004820152601460248201527f5a61703a20546f6b656e206e6f7420696e204c5000000000000000000000000060448201526064016104f1565b6040517f89afcb44000000000000000000000000000000000000000000000000000000008152306004820152600090819073ffffffffffffffffffffffffffffffffffffffff8916906389afcb44906024016040805180830381600087803b1580156134d157600080fd5b505af11580156134e5573d6000803e3d6000fd5b505050506040513d601f19601f82011682018060405250810190613509919061562f565b915091506103e882101561359f576040517f08c379a000000000000000000000000000000000000000000000000000000000815260206004820152602160248201527f52696469526f757465723a20494e53554646494349454e545f415f414d4f554e60448201527f540000000000000000000000000000000000000000000000000000000000000060648201526084016104f1565b6103e8811015613631576040517f08c379a000000000000000000000000000000000000000000000000000000000815260206004820152602160248201527f52696469526f757465723a20494e53554646494349454e545f425f414d4f554e60448201527f540000000000000000000000000000000000000000000000000000000000000060648201526084016104f1565b604080516002808252606082018352600092602083019080368337019050509050878160018151811061368d577f4e487b7100000000000000000000000000000000000000000000000000000000600052603260045260246000fd5b73ffffffffffffffffffffffffffffffffffffffff9283166020918202929092010152600090868116908a1614156137b65784826000815181106136fa577f4e487b7100000000000000000000000000000000000000000000000000000000600052603260045260246000fd5b73ffffffffffffffffffffffffffffffffffffffff92831660209182029290920101526040517f70a08231000000000000000000000000000000000000000000000000000000008152306004820152908616906370a082319060240160206040518083038186803b15801561376e57600080fd5b505afa158015613782573d6000803e3d6000fd5b505050506040513d601f19601f820116820180604052508101906137a69190615617565b90506137b185614be6565b6138a8565b85826000815181106137f1577f4e487b7100000000000000000000000000000000000000000000000000000000600052603260045260246000fd5b73ffffffffffffffffffffffffffffffffffffffff92831660209182029290920101526040517f70a08231000000000000000000000000000000000000000000000000000000008152306004820152908716906370a082319060240160206040518083038186803b15801561386557600080fd5b505afa158015613879573d6000803e3d6000fd5b505050506040513d601f19601f8201168201806040525081019061389d9190615617565b90506138a886614be6565b6003546040517f38ed173900000000000000000000000000000000000000000000000000000000815273ffffffffffffffffffffffffffffffffffffffff909116906338ed1739906139069084908c908790309042906004016156ec565b600060405180830381600087803b15801561392057600080fd5b505af1158015613934573d6000803e3d6000fd5b505050506040513d6000823e601f3d9081017fffffffffffffffffffffffffffffffffffffffffffffffffffffffffffffffe016820160405261397a91908101906154c2565b506040517f70a0823100000000000000000000000000000000000000000000000000000000815230600482015273ffffffffffffffffffffffffffffffffffffffff8a16906370a082319060240160206040518083038186803b1580156139e057600080fd5b505afa1580156139f4573d6000803e3d6000fd5b505050506040513d601f19601f82011682018060405250810190613a189190615617565b96505050505050505b9392505050565b600080613a3660028661578e565b6003546040517f054d50d400000000000000000000000000000000000000000000000000000000815260048101839052602481018790526044810186905291925060009173ffffffffffffffffffffffffffffffffffffffff9091169063054d50d49060640160206040518083038186803b158015613ab457600080fd5b505afa158015613ac8573d6000803e3d6000fd5b505050506040513d601f19601f82011682018060405250810190613aec9190615617565b60035490915060009073ffffffffffffffffffffffffffffffffffffffff1663ad615dec84613b1b818a615776565b613b25868a615804565b6040517fffffffff0000000000000000000000000000000000000000000000000000000060e086901b16815260048101939093526024830191909152604482015260640160206040518083038186803b158015613b8157600080fd5b505afa158015613b95573d6000803e3d6000fd5b505050506040513d601f19601f82011682018060405250810190613bb99190615617565b9050613be38183613bca86806157c7565b613bd491906157c7565b613bde919061578e565b614ce7565b613bed9088615804565b979650505050505050565b60405173ffffffffffffffffffffffffffffffffffffffff8316602482015260448101829052613c4e9084907fa9059cbb0000000000000000000000000000000000000000000000000000000090606401612369565b505050565b60006103e8841015613cc1576040517f08c379a000000000000000000000000000000000000000000000000000000000815260206004820152601360248201527f5a61703a20416d6f756e7420746f6f206c6f770000000000000000000000000060448201526064016104f1565b60008373ffffffffffffffffffffffffffffffffffffffff16630dfe16816040518163ffffffff1660e01b815260040160206040518083038186803b158015613d0957600080fd5b505afa158015613d1d573d6000803e3d6000fd5b505050506040513d601f19601f82011682018060405250810190613d419190615232565b905060008473ffffffffffffffffffffffffffffffffffffffff1663d21220a76040518163ffffffff1660e01b815260040160206040518083038186803b158015613d8b57600080fd5b505afa158015613d9f573d6000803e3d6000fd5b505050506040513d601f19601f82011682018060405250810190613dc39190615232565b90508173ffffffffffffffffffffffffffffffffffffffff168773ffffffffffffffffffffffffffffffffffffffff161480613e2a57508073ffffffffffffffffffffffffffffffffffffffff168773ffffffffffffffffffffffffffffffffffffffff16145b613e90576040517f08c379a000000000000000000000000000000000000000000000000000000000815260206004820152601160248201527f5a61703a2057726f6e6720746f6b656e7300000000000000000000000000000060448201526064016104f1565b6040805160028082526060820183526000926020830190803683370190505090508781600081518110613eec577f4e487b7100000000000000000000000000000000000000000000000000000000600052603260045260246000fd5b602002602001019073ffffffffffffffffffffffffffffffffffffffff16908173ffffffffffffffffffffffffffffffffffffffff168152505060008060008873ffffffffffffffffffffffffffffffffffffffff16630902f1ac6040518163ffffffff1660e01b815260040160606040518083038186803b158015613f7157600080fd5b505afa158015613f85573d6000803e3d6000fd5b505050506040513d601f19601f82011682018060405250810190613fa991906155bc565b506dffffffffffffffffffffffffffff1691506dffffffffffffffffffffffffffff1691506103e88210158015613fe257506103e88110155b614048576040517f08c379a000000000000000000000000000000000000000000000000000000000815260206004820152601560248201527f5a61703a20526573657276657320746f6f206c6f77000000000000000000000060448201526064016104f1565b8a73ffffffffffffffffffffffffffffffffffffffff168673ffffffffffffffffffffffffffffffffffffffff161415614163576140878a8383613a28565b925084846001815181106140c4577f4e487b7100000000000000000000000000000000000000000000000000000000600052603260045260246000fd5b73ffffffffffffffffffffffffffffffffffffffff909216602092830291909101909101526004546140f6848461578e565b101561415e576040517f08c379a000000000000000000000000000000000000000000000000000000000815260206004820152601f60248201527f5a61703a205175616e7469747920686967686572207468616e206c696d69740060448201526064016104f1565b614245565b61416e8a8284613a28565b925085846001815181106141ab577f4e487b7100000000000000000000000000000000000000000000000000000000600052603260045260246000fd5b73ffffffffffffffffffffffffffffffffffffffff909216602092830291909101909101526004546141dd848361578e565b1015614245576040517f08c379a000000000000000000000000000000000000000000000000000000000815260206004820152601f60248201527f5a61703a205175616e7469747920686967686572207468616e206c696d69740060448201526064016104f1565b505061425089614be6565b6003546040517f38ed173900000000000000000000000000000000000000000000000000000000815260009173ffffffffffffffffffffffffffffffffffffffff16906338ed1739906142af9085908b908890309042906004016156ec565b600060405180830381600087803b1580156142c957600080fd5b505af11580156142dd573d6000803e3d6000fd5b505050506040513d6000823e601f3d9081017fffffffffffffffffffffffffffffffffffffffffffffffffffffffffffffffe016820160405261432391908101906154c2565b90508973ffffffffffffffffffffffffffffffffffffffff168573ffffffffffffffffffffffffffffffffffffffff1614156143675761436284614be6565b614370565b61437085614be6565b600354835173ffffffffffffffffffffffffffffffffffffffff9091169063e8e337009085906000906143cc577f4e487b7100000000000000000000000000000000000000000000000000000000600052603260045260246000fd5b60200260200101518560018151811061440e577f4e487b7100000000000000000000000000000000000000000000000000000000600052603260045260246000fd5b602002602001015184600081518110614450577f4e487b7100000000000000000000000000000000000000000000000000000000600052603260045260246000fd5b60200260200101518d6144639190615804565b8560018151811061449d577f4e487b7100000000000000000000000000000000000000000000000000000000600052603260045260246000fd5b60209081029190910101516040517fffffffff0000000000000000000000000000000000000000000000000000000060e087901b16815273ffffffffffffffffffffffffffffffffffffffff94851660048201529390921660248401526044830152606482015260016084820181905260a48201523360c48201524260e482015261010401606060405180830381600087803b15801561453c57600080fd5b505af1158015614550573d6000803e3d6000fd5b505050506040513d601f19601f820116820180604052508101906145749190615652565b9c9b505050505050505050505050565b6000805473ffffffffffffffffffffffffffffffffffffffff8381167fffffffffffffffffffffffff0000000000000000000000000000000000000000831681178455604051919092169283917f8be0079c531659141344cd1fd0a4f28419497f9722a3daafe3b4186f6b6457e09190a35050565b60008061460685876157c7565b61461085896157c7565b1161461c57600061461f565b60015b90508215158115151461468e576040517f08c379a000000000000000000000000000000000000000000000000000000000815260206004820152601a60248201527f5a61703a2057726f6e6720747261646520646972656374696f6e00000000000060448201526064016104f1565b80156148b45760006002856146a3888a6157c7565b6146ad919061578e565b6146b7908a615804565b6146c1919061578e565b6003546040517f054d50d400000000000000000000000000000000000000000000000000000000815260048101839052602481018990526044810188905291925060009173ffffffffffffffffffffffffffffffffffffffff9091169063054d50d49060640160206040518083038186803b15801561473f57600080fd5b505afa158015614753573d6000803e3d6000fd5b505050506040513d601f19601f820116820180604052508101906147779190615617565b60035490915060009073ffffffffffffffffffffffffffffffffffffffff1663ad615dec846147a6818c615776565b6147b0868c615804565b6040517fffffffff0000000000000000000000000000000000000000000000000000000060e086901b16815260048101939093526024830191909152604482015260640160206040518083038186803b15801561480c57600080fd5b505afa158015614820573d6000803e3d6000fd5b505050506040513d601f19601f820116820180604052508101906148449190615617565b905060026148528389615804565b61485c858b615776565b614866908c6157c7565b614870919061578e565b61487a908c615804565b614884919061578e565b92506148958183613bca86806157c7565b6148a08460026157c7565b6148aa9190615804565b9450505050614ad0565b60006002866148c3878b6157c7565b6148cd919061578e565b6148d79089615804565b6148e1919061578e565b6003546040517f054d50d400000000000000000000000000000000000000000000000000000000815260048101839052602481018890526044810189905291925060009173ffffffffffffffffffffffffffffffffffffffff9091169063054d50d49060640160206040518083038186803b15801561495f57600080fd5b505afa158015614973573d6000803e3d6000fd5b505050506040513d601f19601f820116820180604052508101906149979190615617565b60035490915060009073ffffffffffffffffffffffffffffffffffffffff1663ad615dec846149c6818b615776565b6149d0868d615804565b6040517fffffffff0000000000000000000000000000000000000000000000000000000060e086901b16815260048101939093526024830191909152604482015260640160206040518083038186803b158015614a2c57600080fd5b505afa158015614a40573d6000803e3d6000fd5b505050506040513d601f19601f82011682018060405250810190614a649190615617565b90506002614a72838a615804565b614a7c858a615776565b614a86908d6157c7565b614a90919061578e565b614a9a908b615804565b614aa4919061578e565b9250614ab58183613bca86806157c7565b614ac08460026157c7565b614aca9190615804565b94505050505b5095945050505050565b6000614b3c826040518060400160405280602081526020017f5361666545524332303a206c6f772d6c6576656c2063616c6c206661696c65648152508573ffffffffffffffffffffffffffffffffffffffff16614e729092919063ffffffff16565b805190915015613c4e5780806020019051810190614b5a91906155a0565b613c4e576040517f08c379a000000000000000000000000000000000000000000000000000000000815260206004820152602a60248201527f5361666545524332303a204552433230206f7065726174696f6e20646964206e60448201527f6f7420737563636565640000000000000000000000000000000000000000000060648201526084016104f1565b6005546040517fdd62ed3e00000000000000000000000000000000000000000000000000000000815230600482015273ffffffffffffffffffffffffffffffffffffffff918216602482015269d3c21bcecceda10000009183169063dd62ed3e9060440160206040518083038186803b158015614c6257600080fd5b505afa158015614c76573d6000803e3d6000fd5b505050506040513d601f19601f82011682018060405250810190614c9a9190615617565b101561230c5760055461230c9073ffffffffffffffffffffffffffffffffffffffff83811691167fffffffffffffffffffffffffffffffffffffffffffffffffffffffffffffffff614e89565b600081614cf657506000919050565b8160017001000000000000000000000000000000008210614d1c5760809190911c9060401b5b680100000000000000008210614d375760409190911c9060201b5b6401000000008210614d4e5760209190911c9060101b5b620100008210614d635760109190911c9060081b5b6101008210614d775760089190911c9060041b5b60108210614d8a5760049190911c9060021b5b60088210614d965760011b5b6001614da2828661578e565b614dac9083615776565b901c90506001614dbc828661578e565b614dc69083615776565b901c90506001614dd6828661578e565b614de09083615776565b901c90506001614df0828661578e565b614dfa9083615776565b901c90506001614e0a828661578e565b614e149083615776565b901c90506001614e24828661578e565b614e2e9083615776565b901c90506001614e3e828661578e565b614e489083615776565b901c90506000614e58828661578e565b9050808210614e675780614e69565b815b95945050505050565b6060614e81848460008561501a565b949350505050565b801580614f3857506040517fdd62ed3e00000000000000000000000000000000000000000000000000000000815230600482015273ffffffffffffffffffffffffffffffffffffffff838116602483015284169063dd62ed3e9060440160206040518083038186803b158015614efe57600080fd5b505afa158015614f12573d6000803e3d6000fd5b505050506040513d601f19601f82011682018060405250810190614f369190615617565b155b614fc4576040517f08c379a000000000000000000000000000000000000000000000000000000000815260206004820152603660248201527f5361666545524332303a20617070726f76652066726f6d206e6f6e2d7a65726f60448201527f20746f206e6f6e2d7a65726f20616c6c6f77616e63650000000000000000000060648201526084016104f1565b60405173ffffffffffffffffffffffffffffffffffffffff8316602482015260448101829052613c4e9084907f095ea7b30000000000000000000000000000000000000000000000000000000090606401612369565b6060824710156150ac576040517f08c379a000000000000000000000000000000000000000000000000000000000815260206004820152602660248201527f416464726573733a20696e73756666696369656e742062616c616e636520666f60448201527f722063616c6c000000000000000000000000000000000000000000000000000060648201526084016104f1565b73ffffffffffffffffffffffffffffffffffffffff85163b61512a576040517f08c379a000000000000000000000000000000000000000000000000000000000815260206004820152601d60248201527f416464726573733a2063616c6c20746f206e6f6e2d636f6e747261637400000060448201526064016104f1565b6000808673ffffffffffffffffffffffffffffffffffffffff168587604051615153919061567f565b60006040518083038185875af1925050503d8060008114615190576040519150601f19603f3d011682016040523d82523d6000602084013e615195565b606091505b5091509150613bed828286606083156151af575081613a21565b8251156151bf5782518084602001fd5b816040517f08c379a00000000000000000000000000000000000000000000000000000000081526004016104f1919061569b565b80516dffffffffffffffffffffffffffff8116811461521157600080fd5b919050565b600060208284031215615227578081fd5b8135613a21816158a5565b600060208284031215615243578081fd5b8151613a21816158a5565b60008060008060808587031215615263578283fd5b843561526e816158a5565b9350602085013561527e816158a5565b93969395505050506040820135916060013590565b600080600080600060a086880312156152aa578081fd5b85356152b5816158a5565b945060208601356152c5816158a5565b9350604086013592506060860135915060808601356152e3816158a5565b809150509295509295909350565b600080600080600080600080610100898b03121561530d578283fd5b8835615318816158a5565b97506020890135615328816158a5565b965060408901359550606089013594506080890135615346816158a5565b935060a0890135925060c0890135915060e0890135615364816158c7565b809150509295985092959890939650565b60008060408385031215615387578182fd5b8235615392816158a5565b946020939093013593505050565b6000806000606084860312156153b4578283fd5b83356153bf816158a5565b92506020840135915060408401356153d6816158a5565b809150509250925092565b600080600080608085870312156153f6578384fd5b8435615401816158a5565b9350602085013592506040850135615418816158a5565b9396929550929360600135925050565b60008060008060008060c08789031215615440578182fd5b863561544b816158a5565b9550602087013594506040870135615462816158a5565b9350606087013592506080870135915060a0870135615480816158c7565b809150509295509295509295565b6000806000606084860312156154a2578081fd5b83356154ad816158a5565b95602085013595506040909401359392505050565b600060208083850312156154d4578182fd5b825167ffffffffffffffff808211156154eb578384fd5b818501915085601f8301126154fe578384fd5b81518181111561551057615510615876565b8060051b6040517fffffffffffffffffffffffffffffffffffffffffffffffffffffffffffffffe0603f8301168101818110858211171561555357615553615876565b604052828152858101935084860182860187018a1015615571578788fd5b8795505b83861015615593578051855260019590950194938601938601615575565b5098975050505050505050565b6000602082840312156155b1578081fd5b8151613a21816158c7565b6000806000606084860312156155d0578081fd5b6155d9846151f3565b92506155e7602085016151f3565b9150604084015163ffffffff811681146153d6578182fd5b600060208284031215615610578081fd5b5035919050565b600060208284031215615628578081fd5b5051919050565b60008060408385031215615641578182fd5b505080516020909101519092909150565b600080600060608486031215615666578081fd5b8351925060208401519150604084015190509250925092565b6000825161569181846020870161581b565b9190910192915050565b60208152600082518060208401526156ba81604085016020870161581b565b601f017fffffffffffffffffffffffffffffffffffffffffffffffffffffffffffffffe0169190910160400192915050565b600060a082018783526020878185015260a0604085015281875180845260c0860191508289019350845b8181101561574857845173ffffffffffffffffffffffffffffffffffffffff1683529383019391830191600101615716565b505073ffffffffffffffffffffffffffffffffffffffff969096166060850152505050608001529392505050565b6000821982111561578957615789615847565b500190565b6000826157c2577f4e487b710000000000000000000000000000000000000000000000000000000081526012600452602481fd5b500490565b6000817fffffffffffffffffffffffffffffffffffffffffffffffffffffffffffffffff04831182151516156157ff576157ff615847565b500290565b60008282101561581657615816615847565b500390565b60005b8381101561583657818101518382015260200161581e565b838111156123eb5750506000910152565b7f4e487b7100000000000000000000000000000000000000000000000000000000600052601160045260246000fd5b7f4e487b7100000000000000000000000000000000000000000000000000000000600052604160045260246000fd5b73ffffffffffffffffffffffffffffffffffffffff8116811461230c57600080fd5b801515811461230c57600080fdfea2646970667358221220d8498d3bd6568b1e82e12ebc32aac0da4bfd9a420fbb854a5d18620c10a7d52e64736f6c63430008040033",
  "linkReferences": {},
  "deployedLinkReferences": {}
}