{
  "_format": "hh-sol-artifact-1",
  "contractName": "RIDIToken",
  "sourceName": "contracts/RIDI-TOKEN.sol",
  "abi": [
    {
      "anonymous": false,
      "inputs": [
        {
          "indexed": true,
          "internalType": "address",
          "name": "owner",
          "type": "address"
        },
        {
          "indexed": true,
          "internalType": "address",
          "name": "spender",
          "type": "address"
        },
        {
          "indexed": false,
          "internalType": "uint256",
          "name": "value",
          "type": "uint256"
        }
      ],
      "name": "Approval",
      "type": "event"
    },
    {
      "anonymous": false,
      "inputs": [
        {
          "indexed": true,
          "internalType": "address",
          "name": "delegator",
          "type": "address"
        },
        {
          "indexed": true,
          "internalType": "address",
          "name": "fromDelegate",
          "type": "address"
        },
        {
          "indexed": true,
          "internalType": "address",
          "name": "toDelegate",
          "type": "address"
        }
      ],
      "name": "DelegateChanged",
      "type": "event"
    },
    {
      "anonymous": false,
      "inputs": [
        {
          "indexed": true,
          "internalType": "address",
          "name": "delegate",
          "type": "address"
        },
        {
          "indexed": false,
          "internalType": "uint256",
          "name": "previousBalance",
          "type": "uint256"
        },
        {
          "indexed": false,
          "internalType": "uint256",
          "name": "newBalance",
          "type": "uint256"
        }
      ],
      "name": "DelegateVotesChanged",
      "type": "event"
    },
    {
      "anonymous": false,
      "inputs": [
        {
          "indexed": true,
          "internalType": "address",
          "name": "previousOwner",
          "type": "address"
        },
        {
          "indexed": true,
          "internalType": "address",
          "name": "newOwner",
          "type": "address"
        }
      ],
      "name": "OwnershipTransferred",
      "type": "event"
    },
    {
      "anonymous": false,
      "inputs": [
        {
          "indexed": true,
          "internalType": "address",
          "name": "from",
          "type": "address"
        },
        {
          "indexed": true,
          "internalType": "address",
          "name": "to",
          "type": "address"
        },
        {
          "indexed": false,
          "internalType": "uint256",
          "name": "value",
          "type": "uint256"
        }
      ],
      "name": "Transfer",
      "type": "event"
    },
    {
      "inputs": [],
      "name": "DELEGATION_TYPEHASH",
      "outputs": [
        {
          "internalType": "bytes32",
          "name": "",
          "type": "bytes32"
        }
      ],
      "stateMutability": "view",
      "type": "function"
    },
    {
      "inputs": [],
      "name": "DOMAIN_TYPEHASH",
      "outputs": [
        {
          "internalType": "bytes32",
          "name": "",
          "type": "bytes32"
        }
      ],
      "stateMutability": "view",
      "type": "function"
    },
    {
      "inputs": [
        {
          "internalType": "address",
          "name": "owner",
          "type": "address"
        },
        {
          "internalType": "address",
          "name": "spender",
          "type": "address"
        }
      ],
      "name": "allowance",
      "outputs": [
        {
          "internalType": "uint256",
          "name": "",
          "type": "uint256"
        }
      ],
      "stateMutability": "view",
      "type": "function"
    },
    {
      "inputs": [
        {
          "internalType": "address",
          "name": "spender",
          "type": "address"
        },
        {
          "internalType": "uint256",
          "name": "amount",
          "type": "uint256"
        }
      ],
      "name": "approve",
      "outputs": [
        {
          "internalType": "bool",
          "name": "",
          "type": "bool"
        }
      ],
      "stateMutability": "nonpayable",
      "type": "function"
    },
    {
      "inputs": [
        {
          "internalType": "address",
          "name": "account",
          "type": "address"
        }
      ],
      "name": "balanceOf",
      "outputs": [
        {
          "internalType": "uint256",
          "name": "",
          "type": "uint256"
        }
      ],
      "stateMutability": "view",
      "type": "function"
    },
    {
      "inputs": [
        {
          "internalType": "address",
          "name": "",
          "type": "address"
        },
        {
          "internalType": "uint32",
          "name": "",
          "type": "uint32"
        }
      ],
      "name": "checkpoints",
      "outputs": [
        {
          "internalType": "uint32",
          "name": "fromBlock",
          "type": "uint32"
        },
        {
          "internalType": "uint256",
          "name": "votes",
          "type": "uint256"
        }
      ],
      "stateMutability": "view",
      "type": "function"
    },
    {
      "inputs": [],
      "name": "decimals",
      "outputs": [
        {
          "internalType": "uint8",
          "name": "",
          "type": "uint8"
        }
      ],
      "stateMutability": "view",
      "type": "function"
    },
    {
      "inputs": [
        {
          "internalType": "address",
          "name": "spender",
          "type": "address"
        },
        {
          "internalType": "uint256",
          "name": "subtractedValue",
          "type": "uint256"
        }
      ],
      "name": "decreaseAllowance",
      "outputs": [
        {
          "internalType": "bool",
          "name": "",
          "type": "bool"
        }
      ],
      "stateMutability": "nonpayable",
      "type": "function"
    },
    {
      "inputs": [
        {
          "internalType": "address",
          "name": "delegatee",
          "type": "address"
        }
      ],
      "name": "delegate",
      "outputs": [],
      "stateMutability": "nonpayable",
      "type": "function"
    },
    {
      "inputs": [
        {
          "internalType": "address",
          "name": "delegatee",
          "type": "address"
        },
        {
          "internalType": "uint256",
          "name": "nonce",
          "type": "uint256"
        },
        {
          "internalType": "uint256",
          "name": "expiry",
          "type": "uint256"
        },
        {
          "internalType": "uint8",
          "name": "v",
          "type": "uint8"
        },
        {
          "internalType": "bytes32",
          "name": "r",
          "type": "bytes32"
        },
        {
          "internalType": "bytes32",
          "name": "s",
          "type": "bytes32"
        }
      ],
      "name": "delegateBySig",
      "outputs": [],
      "stateMutability": "nonpayable",
      "type": "function"
    },
    {
      "inputs": [
        {
          "internalType": "address",
          "name": "delegator",
          "type": "address"
        }
      ],
      "name": "delegates",
      "outputs": [
        {
          "internalType": "address",
          "name": "",
          "type": "address"
        }
      ],
      "stateMutability": "view",
      "type": "function"
    },
    {
      "inputs": [
        {
          "internalType": "address",
          "name": "account",
          "type": "address"
        }
      ],
      "name": "getCurrentVotes",
      "outputs": [
        {
          "internalType": "uint256",
          "name": "",
          "type": "uint256"
        }
      ],
      "stateMutability": "view",
      "type": "function"
    },
    {
      "inputs": [],
      "name": "getOwner",
      "outputs": [
        {
          "internalType": "address",
          "name": "",
          "type": "address"
        }
      ],
      "stateMutability": "view",
      "type": "function"
    },
    {
      "inputs": [
        {
          "internalType": "address",
          "name": "account",
          "type": "address"
        },
        {
          "internalType": "uint256",
          "name": "blockNumber",
          "type": "uint256"
        }
      ],
      "name": "getPriorVotes",
      "outputs": [
        {
          "internalType": "uint256",
          "name": "",
          "type": "uint256"
        }
      ],
      "stateMutability": "view",
      "type": "function"
    },
    {
      "inputs": [
        {
          "internalType": "address",
          "name": "spender",
          "type": "address"
        },
        {
          "internalType": "uint256",
          "name": "addedValue",
          "type": "uint256"
        }
      ],
      "name": "increaseAllowance",
      "outputs": [
        {
          "internalType": "bool",
          "name": "",
          "type": "bool"
        }
      ],
      "stateMutability": "nonpayable",
      "type": "function"
    },
    {
      "inputs": [
        {
          "internalType": "address",
          "name": "_to",
          "type": "address"
        },
        {
          "internalType": "uint256",
          "name": "_amount",
          "type": "uint256"
        }
      ],
      "name": "mint",
      "outputs": [],
      "stateMutability": "nonpayable",
      "type": "function"
    },
    {
      "inputs": [
        {
          "internalType": "uint256",
          "name": "amount",
          "type": "uint256"
        }
      ],
      "name": "mint",
      "outputs": [
        {
          "internalType": "bool",
          "name": "",
          "type": "bool"
        }
      ],
      "stateMutability": "nonpayable",
      "type": "function"
    },
    {
      "inputs": [],
      "name": "name",
      "outputs": [
        {
          "internalType": "string",
          "name": "",
          "type": "string"
        }
      ],
      "stateMutability": "view",
      "type": "function"
    },
    {
      "inputs": [
        {
          "internalType": "address",
          "name": "",
          "type": "address"
        }
      ],
      "name": "nonces",
      "outputs": [
        {
          "internalType": "uint256",
          "name": "",
          "type": "uint256"
        }
      ],
      "stateMutability": "view",
      "type": "function"
    },
    {
      "inputs": [
        {
          "internalType": "address",
          "name": "",
          "type": "address"
        }
      ],
      "name": "numCheckpoints",
      "outputs": [
        {
          "internalType": "uint32",
          "name": "",
          "type": "uint32"
        }
      ],
      "stateMutability": "view",
      "type": "function"
    },
    {
      "inputs": [],
      "name": "owner",
      "outputs": [
        {
          "internalType": "address",
          "name": "",
          "type": "address"
        }
      ],
      "stateMutability": "view",
      "type": "function"
    },
    {
      "inputs": [],
      "name": "renounceOwnership",
      "outputs": [],
      "stateMutability": "nonpayable",
      "type": "function"
    },
    {
      "inputs": [],
      "name": "symbol",
      "outputs": [
        {
          "internalType": "string",
          "name": "",
          "type": "string"
        }
      ],
      "stateMutability": "view",
      "type": "function"
    },
    {
      "inputs": [],
      "name": "totalSupply",
      "outputs": [
        {
          "internalType": "uint256",
          "name": "",
          "type": "uint256"
        }
      ],
      "stateMutability": "view",
      "type": "function"
    },
    {
      "inputs": [
        {
          "internalType": "address",
          "name": "recipient",
          "type": "address"
        },
        {
          "internalType": "uint256",
          "name": "amount",
          "type": "uint256"
        }
      ],
      "name": "transfer",
      "outputs": [
        {
          "internalType": "bool",
          "name": "",
          "type": "bool"
        }
      ],
      "stateMutability": "nonpayable",
      "type": "function"
    },
    {
      "inputs": [
        {
          "internalType": "address",
          "name": "sender",
          "type": "address"
        },
        {
          "internalType": "address",
          "name": "recipient",
          "type": "address"
        },
        {
          "internalType": "uint256",
          "name": "amount",
          "type": "uint256"
        }
      ],
      "name": "transferFrom",
      "outputs": [
        {
          "internalType": "bool",
          "name": "",
          "type": "bool"
        }
      ],
      "stateMutability": "nonpayable",
      "type": "function"
    },
    {
      "inputs": [
        {
          "internalType": "address",
          "name": "newOwner",
          "type": "address"
        }
      ],
      "name": "transferOwnership",
      "outputs": [],
      "stateMutability": "nonpayable",
      "type": "function"
    }
  ],
  "bytecode": "0x60806040523480156200001157600080fd5b506040518060400160405280601881526020017f5269646963756c6f75732046696e616e636520546f6b656e0000000000000000815250604051806040016040528060048152602001635249444960e01b8152506000620000776200010260201b60201c565b600080546001600160a01b0319166001600160a01b0383169081178255604051929350917f8be0079c531659141344cd1fd0a4f28419497f9722a3daafe3b4186f6b6457e0908290a3508151620000d690600490602085019062000106565b508051620000ec90600590602084019062000106565b50506006805460ff1916601217905550620001e8565b3390565b8280546200011490620001ac565b90600052602060002090601f01602090048101928262000138576000855562000183565b82601f106200015357805160ff191683800117855562000183565b8280016001018555821562000183579182015b828111156200018357825182559160200191906001019062000166565b506200019192915062000195565b5090565b5b8082111562000191576000815560010162000196565b600181811c90821680620001c157607f821691505b602082108103620001e257634e487b7160e01b600052602260045260246000fd5b50919050565b61214f80620001f86000396000f3fe608060405234801561001057600080fd5b50600436106101b95760003560e01c8063782d6fe1116100f9578063a9059cbb11610097578063dd62ed3e11610071578063dd62ed3e1461042a578063e7a324dc14610470578063f1127ed814610497578063f2fde38b146104ee57600080fd5b8063a9059cbb146103f1578063b4b5ea5714610404578063c3cda5201461041757600080fd5b80638da5cb5b116100d35780638da5cb5b146103a557806395d89b41146103c3578063a0712d68146103cb578063a457c2d7146103de57600080fd5b8063782d6fe1146103725780637ecebe0014610385578063893d20e8146103a557600080fd5b806339509351116101665780635c19a95c116101405780635c19a95c146102e65780636fcfff45146102f957806370a0823114610334578063715018a61461036a57600080fd5b8063395093511461026057806340c10f1914610273578063587cde1e1461028857600080fd5b806320606b701161019757806320606b701461021157806323b872dd14610238578063313ce5671461024b57600080fd5b806306fdde03146101be578063095ea7b3146101dc57806318160ddd146101ff575b600080fd5b6101c6610501565b6040516101d39190611cee565b60405180910390f35b6101ef6101ea366004611d85565b610593565b60405190151581526020016101d3565b6003545b6040519081526020016101d3565b6102037f8cad95687ba82c2ce50e74f7b754645e5117c3a5bec8151c0726d5857980a86681565b6101ef610246366004611daf565b6105aa565b60065460405160ff90911681526020016101d3565b6101ef61026e366004611d85565b610620565b610286610281366004611d85565b610663565b005b6102c1610296366004611deb565b73ffffffffffffffffffffffffffffffffffffffff9081166000908152600760205260409020541690565b60405173ffffffffffffffffffffffffffffffffffffffff90911681526020016101d3565b6102866102f4366004611deb565b610729565b61031f610307366004611deb565b60096020526000908152604090205463ffffffff1681565b60405163ffffffff90911681526020016101d3565b610203610342366004611deb565b73ffffffffffffffffffffffffffffffffffffffff1660009081526001602052604090205490565b610286610736565b610203610380366004611d85565b610826565b610203610393366004611deb565b600a6020526000908152604090205481565b60005473ffffffffffffffffffffffffffffffffffffffff166102c1565b6101c6610b0c565b6101ef6103d9366004611e06565b610b1b565b6101ef6103ec366004611d85565b610bb0565b6101ef6103ff366004611d85565b610c0c565b610203610412366004611deb565b610c19565b610286610425366004611e1f565b610ca8565b610203610438366004611e7f565b73ffffffffffffffffffffffffffffffffffffffff918216600090815260026020908152604080832093909416825291909152205490565b6102037fe48329057bfd03d55e49b547132e39cffd9c1820ad7b9d4c5307691425d15adf81565b6104d26104a5366004611eb2565b60086020908152600092835260408084209091529082529020805460019091015463ffffffff9091169082565b6040805163ffffffff90931683526020830191909152016101d3565b6102866104fc366004611deb565b61108b565b60606004805461051090611ef2565b80601f016020809104026020016040519081016040528092919081815260200182805461053c90611ef2565b80156105895780601f1061055e57610100808354040283529160200191610589565b820191906000526020600020905b81548152906001019060200180831161056c57829003601f168201915b5050505050905090565b60006105a0338484611115565b5060015b92915050565b60006105b78484846112c9565b6106168433610611856040518060600160405280602881526020016120a76028913973ffffffffffffffffffffffffffffffffffffffff8a16600090815260026020908152604080832033845290915290205491906114f6565b611115565b5060019392505050565b33600081815260026020908152604080832073ffffffffffffffffffffffffffffffffffffffff8716845290915281205490916105a0918590610611908661154a565b60005473ffffffffffffffffffffffffffffffffffffffff1633146106e9576040517f08c379a000000000000000000000000000000000000000000000000000000000815260206004820181905260248201527f4f776e61626c653a2063616c6c6572206973206e6f7420746865206f776e657260448201526064015b60405180910390fd5b6106f382826115c3565b73ffffffffffffffffffffffffffffffffffffffff8083166000908152600760205260408120546107259216836116ea565b5050565b61073333826118b6565b50565b60005473ffffffffffffffffffffffffffffffffffffffff1633146107b7576040517f08c379a000000000000000000000000000000000000000000000000000000000815260206004820181905260248201527f4f776e61626c653a2063616c6c6572206973206e6f7420746865206f776e657260448201526064016106e0565b6000805460405173ffffffffffffffffffffffffffffffffffffffff909116907f8be0079c531659141344cd1fd0a4f28419497f9722a3daafe3b4186f6b6457e0908390a3600080547fffffffffffffffffffffffff0000000000000000000000000000000000000000169055565b60004382106108b7576040517f08c379a000000000000000000000000000000000000000000000000000000000815260206004820152602760248201527f524944493a3a6765745072696f72566f7465733a206e6f74207965742064657460448201527f65726d696e65640000000000000000000000000000000000000000000000000060648201526084016106e0565b73ffffffffffffffffffffffffffffffffffffffff831660009081526009602052604081205463ffffffff16908190036108f55760009150506105a4565b73ffffffffffffffffffffffffffffffffffffffff841660009081526008602052604081208491610927600185611f74565b63ffffffff9081168252602082019290925260400160002054161161099d5773ffffffffffffffffffffffffffffffffffffffff8416600090815260086020526040812090610977600184611f74565b63ffffffff1663ffffffff168152602001908152602001600020600101549150506105a4565b73ffffffffffffffffffffffffffffffffffffffff8416600090815260086020908152604080832083805290915290205463ffffffff168310156109e55760009150506105a4565b6000806109f3600184611f74565b90505b8163ffffffff168163ffffffff161115610ac85760006002610a188484611f74565b610a229190611f99565b610a2c9083611f74565b73ffffffffffffffffffffffffffffffffffffffff8816600090815260086020908152604080832063ffffffff8086168552908352928190208151808301909252805490931680825260019093015491810191909152919250879003610a9c576020015194506105a49350505050565b805163ffffffff16871115610ab357819350610ac1565b610abe600183611f74565b92505b50506109f6565b5073ffffffffffffffffffffffffffffffffffffffff8516600090815260086020908152604080832063ffffffff9094168352929052206001015491505092915050565b60606005805461051090611ef2565b6000805473ffffffffffffffffffffffffffffffffffffffff163314610b9d576040517f08c379a000000000000000000000000000000000000000000000000000000000815260206004820181905260248201527f4f776e61626c653a2063616c6c6572206973206e6f7420746865206f776e657260448201526064016106e0565b610ba733836115c3565b5060015b919050565b60006105a03384610611856040518060600160405280602581526020016120f56025913933600090815260026020908152604080832073ffffffffffffffffffffffffffffffffffffffff8d16845290915290205491906114f6565b60006105a03384846112c9565b73ffffffffffffffffffffffffffffffffffffffff811660009081526009602052604081205463ffffffff1680610c51576000610ca1565b73ffffffffffffffffffffffffffffffffffffffff8316600090815260086020526040812090610c82600184611f74565b63ffffffff1663ffffffff168152602001908152602001600020600101545b9392505050565b60007f8cad95687ba82c2ce50e74f7b754645e5117c3a5bec8151c0726d5857980a866610cd3610501565b80519060200120610ce14690565b60408051602080820195909552808201939093526060830191909152306080808401919091528151808403909101815260a0830182528051908401207fe48329057bfd03d55e49b547132e39cffd9c1820ad7b9d4c5307691425d15adf60c084015273ffffffffffffffffffffffffffffffffffffffff8b1660e084015261010083018a90526101208084018a9052825180850390910181526101408401909252815191909301207f1901000000000000000000000000000000000000000000000000000000000000610160830152610162820183905261018282018190529192506000906101a201604080517fffffffffffffffffffffffffffffffffffffffffffffffffffffffffffffffe08184030181528282528051602091820120600080855291840180845281905260ff8a169284019290925260608301889052608083018790529092509060019060a0016020604051602081039080840390855afa158015610e53573d6000803e3d6000fd5b50506040517fffffffffffffffffffffffffffffffffffffffffffffffffffffffffffffffe0015191505073ffffffffffffffffffffffffffffffffffffffff8116610f21576040517f08c379a000000000000000000000000000000000000000000000000000000000815260206004820152602660248201527f524944493a3a64656c656761746542795369673a20696e76616c69642073696760448201527f6e6174757265000000000000000000000000000000000000000000000000000060648201526084016106e0565b73ffffffffffffffffffffffffffffffffffffffff81166000908152600a60205260408120805491610f5283611fe3565b919050558914610fe4576040517f08c379a000000000000000000000000000000000000000000000000000000000815260206004820152602260248201527f524944493a3a64656c656761746542795369673a20696e76616c6964206e6f6e60448201527f636500000000000000000000000000000000000000000000000000000000000060648201526084016106e0565b87421115611074576040517f08c379a000000000000000000000000000000000000000000000000000000000815260206004820152602660248201527f524944493a3a64656c656761746542795369673a207369676e6174757265206560448201527f787069726564000000000000000000000000000000000000000000000000000060648201526084016106e0565b61107e818b6118b6565b505050505b505050505050565b60005473ffffffffffffffffffffffffffffffffffffffff16331461110c576040517f08c379a000000000000000000000000000000000000000000000000000000000815260206004820181905260248201527f4f776e61626c653a2063616c6c6572206973206e6f7420746865206f776e657260448201526064016106e0565b6107338161195b565b73ffffffffffffffffffffffffffffffffffffffff83166111b7576040517f08c379a0000000000000000000000000000000000000000000000000000000008152602060048201526024808201527f42455032303a20617070726f76652066726f6d20746865207a65726f2061646460448201527f726573730000000000000000000000000000000000000000000000000000000060648201526084016106e0565b73ffffffffffffffffffffffffffffffffffffffff821661125a576040517f08c379a000000000000000000000000000000000000000000000000000000000815260206004820152602260248201527f42455032303a20617070726f766520746f20746865207a65726f20616464726560448201527f737300000000000000000000000000000000000000000000000000000000000060648201526084016106e0565b73ffffffffffffffffffffffffffffffffffffffff83811660008181526002602090815260408083209487168084529482529182902085905590518481527f8c5be1e5ebec7d5bd14f71427d1e84f3dd0314c0f7b2291e5b200ac8c7c3b92591015b60405180910390a3505050565b73ffffffffffffffffffffffffffffffffffffffff831661136c576040517f08c379a000000000000000000000000000000000000000000000000000000000815260206004820152602560248201527f42455032303a207472616e736665722066726f6d20746865207a65726f20616460448201527f647265737300000000000000000000000000000000000000000000000000000060648201526084016106e0565b73ffffffffffffffffffffffffffffffffffffffff821661140f576040517f08c379a000000000000000000000000000000000000000000000000000000000815260206004820152602360248201527f42455032303a207472616e7366657220746f20746865207a65726f206164647260448201527f657373000000000000000000000000000000000000000000000000000000000060648201526084016106e0565b611459816040518060600160405280602681526020016120cf6026913973ffffffffffffffffffffffffffffffffffffffff861660009081526001602052604090205491906114f6565b73ffffffffffffffffffffffffffffffffffffffff8085166000908152600160205260408082209390935590841681522054611495908261154a565b73ffffffffffffffffffffffffffffffffffffffff80841660008181526001602052604090819020939093559151908516907fddf252ad1be2c89b69c2b068fc378daa952ba7f163c4a11628f55a4df523b3ef906112bc9085815260200190565b60008184841115611534576040517f08c379a00000000000000000000000000000000000000000000000000000000081526004016106e09190611cee565b506000611541848661201b565b95945050505050565b6000806115578385612032565b905083811015610ca1576040517f08c379a000000000000000000000000000000000000000000000000000000000815260206004820152601b60248201527f536166654d6174683a206164646974696f6e206f766572666c6f77000000000060448201526064016106e0565b73ffffffffffffffffffffffffffffffffffffffff8216611640576040517f08c379a000000000000000000000000000000000000000000000000000000000815260206004820152601f60248201527f42455032303a206d696e7420746f20746865207a65726f20616464726573730060448201526064016106e0565b60035461164d908261154a565b60035573ffffffffffffffffffffffffffffffffffffffff8216600090815260016020526040902054611680908261154a565b73ffffffffffffffffffffffffffffffffffffffff83166000818152600160205260408082209390935591519091907fddf252ad1be2c89b69c2b068fc378daa952ba7f163c4a11628f55a4df523b3ef906116de9085815260200190565b60405180910390a35050565b8173ffffffffffffffffffffffffffffffffffffffff168373ffffffffffffffffffffffffffffffffffffffff16141580156117265750600081115b156118b15773ffffffffffffffffffffffffffffffffffffffff8316156117f05773ffffffffffffffffffffffffffffffffffffffff831660009081526009602052604081205463ffffffff1690816117805760006117d0565b73ffffffffffffffffffffffffffffffffffffffff85166000908152600860205260408120906117b1600185611f74565b63ffffffff1663ffffffff168152602001908152602001600020600101545b905060006117de848361201b565b90506117ec86848484611a8b565b5050505b73ffffffffffffffffffffffffffffffffffffffff8216156118b15773ffffffffffffffffffffffffffffffffffffffff821660009081526009602052604081205463ffffffff169081611845576000611895565b73ffffffffffffffffffffffffffffffffffffffff8416600090815260086020526040812090611876600185611f74565b63ffffffff1663ffffffff168152602001908152602001600020600101545b905060006118a38483612032565b905061108385848484611a8b565b505050565b73ffffffffffffffffffffffffffffffffffffffff828116600081815260076020818152604080842080546001845282862054949093528787167fffffffffffffffffffffffff00000000000000000000000000000000000000008416811790915590519190951694919391928592917f3134e8a2e6d97e929a7e54011ea5485d7d196dd5f0ba4d4ef95803e8e3fc257f9190a46119558284836116ea565b50505050565b73ffffffffffffffffffffffffffffffffffffffff81166119fe576040517f08c379a000000000000000000000000000000000000000000000000000000000815260206004820152602660248201527f4f776e61626c653a206e6577206f776e657220697320746865207a65726f206160448201527f646472657373000000000000000000000000000000000000000000000000000060648201526084016106e0565b6000805460405173ffffffffffffffffffffffffffffffffffffffff808516939216917f8be0079c531659141344cd1fd0a4f28419497f9722a3daafe3b4186f6b6457e091a3600080547fffffffffffffffffffffffff00000000000000000000000000000000000000001673ffffffffffffffffffffffffffffffffffffffff92909216919091179055565b6000611aaf4360405180606001604052806034815260200161207360349139611ca4565b905060008463ffffffff16118015611b16575073ffffffffffffffffffffffffffffffffffffffff8516600090815260086020526040812063ffffffff831691611afa600188611f74565b63ffffffff908116825260208201929092526040016000205416145b15611b6c5773ffffffffffffffffffffffffffffffffffffffff851660009081526008602052604081208391611b4d600188611f74565b63ffffffff168152602081019190915260400160002060010155611c4c565b60408051808201825263ffffffff8381168252602080830186815273ffffffffffffffffffffffffffffffffffffffff8a166000908152600883528581208a85168252909252939020915182547fffffffffffffffffffffffffffffffffffffffffffffffffffffffff000000001691161781559051600191820155611bf390859061204a565b73ffffffffffffffffffffffffffffffffffffffff8616600090815260096020526040902080547fffffffffffffffffffffffffffffffffffffffffffffffffffffffff000000001663ffffffff929092169190911790555b604080518481526020810184905273ffffffffffffffffffffffffffffffffffffffff8716917fdec2bacdd2f05b59de34da9b523dff8be42e5e38e818c82fdb0bae774387a724910160405180910390a25050505050565b6000816401000000008410611ce6576040517f08c379a00000000000000000000000000000000000000000000000000000000081526004016106e09190611cee565b509192915050565b600060208083528351808285015260005b81811015611d1b57858101830151858201604001528201611cff565b81811115611d2d576000604083870101525b50601f017fffffffffffffffffffffffffffffffffffffffffffffffffffffffffffffffe016929092016040019392505050565b803573ffffffffffffffffffffffffffffffffffffffff81168114610bab57600080fd5b60008060408385031215611d9857600080fd5b611da183611d61565b946020939093013593505050565b600080600060608486031215611dc457600080fd5b611dcd84611d61565b9250611ddb60208501611d61565b9150604084013590509250925092565b600060208284031215611dfd57600080fd5b610ca182611d61565b600060208284031215611e1857600080fd5b5035919050565b60008060008060008060c08789031215611e3857600080fd5b611e4187611d61565b95506020870135945060408701359350606087013560ff81168114611e6557600080fd5b9598949750929560808101359460a0909101359350915050565b60008060408385031215611e9257600080fd5b611e9b83611d61565b9150611ea960208401611d61565b90509250929050565b60008060408385031215611ec557600080fd5b611ece83611d61565b9150602083013563ffffffff81168114611ee757600080fd5b809150509250929050565b600181811c90821680611f0657607f821691505b602082108103611f3f577f4e487b7100000000000000000000000000000000000000000000000000000000600052602260045260246000fd5b50919050565b7f4e487b7100000000000000000000000000000000000000000000000000000000600052601160045260246000fd5b600063ffffffff83811690831681811015611f9157611f91611f45565b039392505050565b600063ffffffff80841680611fd7577f4e487b7100000000000000000000000000000000000000000000000000000000600052601260045260246000fd5b92169190910492915050565b60007fffffffffffffffffffffffffffffffffffffffffffffffffffffffffffffffff820361201457612014611f45565b5060010190565b60008282101561202d5761202d611f45565b500390565b6000821982111561204557612045611f45565b500190565b600063ffffffff80831681851680830382111561206957612069611f45565b0194935050505056fe524944493a3a5f7772697465436865636b706f696e743a20626c6f636b206e756d6265722065786365656473203332206269747342455032303a207472616e7366657220616d6f756e74206578636565647320616c6c6f77616e636542455032303a207472616e7366657220616d6f756e7420657863656564732062616c616e636542455032303a2064656372656173656420616c6c6f77616e63652062656c6f77207a65726fa2646970667358221220921b9dd7499644b2fb05c69bde091a5f9d3d0f88107072a900f1c9557247ce8c64736f6c634300080d0033",
  "linkReferences": {},
  "deployedLinkReferences": {}
}