{
  "_format": "hh-sol-artifact-1",
  "contractName": "SyrupBar",
  "sourceName": "contracts/SyrupBar.sol",
  "abi": [
    {
      "inputs": [
        {
          "internalType": "contract RIDIToken",
          "name": "_ridi",
          "type": "address"
        }
      ],
      "stateMutability": "nonpayable",
      "type": "constructor"
    },
    {
      "anonymous": false,
      "inputs": [
        {
          "indexed": true,
          "internalType": "address",
          "name": "owner",
          "type": "address"
        },
        {
          "indexed": true,
          "internalType": "address",
          "name": "spender",
          "type": "address"
        },
        {
          "indexed": false,
          "internalType": "uint256",
          "name": "value",
          "type": "uint256"
        }
      ],
      "name": "Approval",
      "type": "event"
    },
    {
      "anonymous": false,
      "inputs": [
        {
          "indexed": true,
          "internalType": "address",
          "name": "delegator",
          "type": "address"
        },
        {
          "indexed": true,
          "internalType": "address",
          "name": "fromDelegate",
          "type": "address"
        },
        {
          "indexed": true,
          "internalType": "address",
          "name": "toDelegate",
          "type": "address"
        }
      ],
      "name": "DelegateChanged",
      "type": "event"
    },
    {
      "anonymous": false,
      "inputs": [
        {
          "indexed": true,
          "internalType": "address",
          "name": "delegate",
          "type": "address"
        },
        {
          "indexed": false,
          "internalType": "uint256",
          "name": "previousBalance",
          "type": "uint256"
        },
        {
          "indexed": false,
          "internalType": "uint256",
          "name": "newBalance",
          "type": "uint256"
        }
      ],
      "name": "DelegateVotesChanged",
      "type": "event"
    },
    {
      "anonymous": false,
      "inputs": [
        {
          "indexed": true,
          "internalType": "address",
          "name": "previousOwner",
          "type": "address"
        },
        {
          "indexed": true,
          "internalType": "address",
          "name": "newOwner",
          "type": "address"
        }
      ],
      "name": "OwnershipTransferred",
      "type": "event"
    },
    {
      "anonymous": false,
      "inputs": [
        {
          "indexed": true,
          "internalType": "address",
          "name": "from",
          "type": "address"
        },
        {
          "indexed": true,
          "internalType": "address",
          "name": "to",
          "type": "address"
        },
        {
          "indexed": false,
          "internalType": "uint256",
          "name": "value",
          "type": "uint256"
        }
      ],
      "name": "Transfer",
      "type": "event"
    },
    {
      "inputs": [],
      "name": "DELEGATION_TYPEHASH",
      "outputs": [
        {
          "internalType": "bytes32",
          "name": "",
          "type": "bytes32"
        }
      ],
      "stateMutability": "view",
      "type": "function"
    },
    {
      "inputs": [],
      "name": "DOMAIN_TYPEHASH",
      "outputs": [
        {
          "internalType": "bytes32",
          "name": "",
          "type": "bytes32"
        }
      ],
      "stateMutability": "view",
      "type": "function"
    },
    {
      "inputs": [
        {
          "internalType": "address",
          "name": "owner",
          "type": "address"
        },
        {
          "internalType": "address",
          "name": "spender",
          "type": "address"
        }
      ],
      "name": "allowance",
      "outputs": [
        {
          "internalType": "uint256",
          "name": "",
          "type": "uint256"
        }
      ],
      "stateMutability": "view",
      "type": "function"
    },
    {
      "inputs": [
        {
          "internalType": "address",
          "name": "spender",
          "type": "address"
        },
        {
          "internalType": "uint256",
          "name": "amount",
          "type": "uint256"
        }
      ],
      "name": "approve",
      "outputs": [
        {
          "internalType": "bool",
          "name": "",
          "type": "bool"
        }
      ],
      "stateMutability": "nonpayable",
      "type": "function"
    },
    {
      "inputs": [
        {
          "internalType": "address",
          "name": "account",
          "type": "address"
        }
      ],
      "name": "balanceOf",
      "outputs": [
        {
          "internalType": "uint256",
          "name": "",
          "type": "uint256"
        }
      ],
      "stateMutability": "view",
      "type": "function"
    },
    {
      "inputs": [
        {
          "internalType": "address",
          "name": "_from",
          "type": "address"
        },
        {
          "internalType": "uint256",
          "name": "_amount",
          "type": "uint256"
        }
      ],
      "name": "burn",
      "outputs": [],
      "stateMutability": "nonpayable",
      "type": "function"
    },
    {
      "inputs": [
        {
          "internalType": "address",
          "name": "",
          "type": "address"
        },
        {
          "internalType": "uint32",
          "name": "",
          "type": "uint32"
        }
      ],
      "name": "checkpoints",
      "outputs": [
        {
          "internalType": "uint32",
          "name": "fromBlock",
          "type": "uint32"
        },
        {
          "internalType": "uint256",
          "name": "votes",
          "type": "uint256"
        }
      ],
      "stateMutability": "view",
      "type": "function"
    },
    {
      "inputs": [],
      "name": "decimals",
      "outputs": [
        {
          "internalType": "uint8",
          "name": "",
          "type": "uint8"
        }
      ],
      "stateMutability": "view",
      "type": "function"
    },
    {
      "inputs": [
        {
          "internalType": "address",
          "name": "spender",
          "type": "address"
        },
        {
          "internalType": "uint256",
          "name": "subtractedValue",
          "type": "uint256"
        }
      ],
      "name": "decreaseAllowance",
      "outputs": [
        {
          "internalType": "bool",
          "name": "",
          "type": "bool"
        }
      ],
      "stateMutability": "nonpayable",
      "type": "function"
    },
    {
      "inputs": [
        {
          "internalType": "address",
          "name": "delegatee",
          "type": "address"
        }
      ],
      "name": "delegate",
      "outputs": [],
      "stateMutability": "nonpayable",
      "type": "function"
    },
    {
      "inputs": [
        {
          "internalType": "address",
          "name": "delegatee",
          "type": "address"
        },
        {
          "internalType": "uint256",
          "name": "nonce",
          "type": "uint256"
        },
        {
          "internalType": "uint256",
          "name": "expiry",
          "type": "uint256"
        },
        {
          "internalType": "uint8",
          "name": "v",
          "type": "uint8"
        },
        {
          "internalType": "bytes32",
          "name": "r",
          "type": "bytes32"
        },
        {
          "internalType": "bytes32",
          "name": "s",
          "type": "bytes32"
        }
      ],
      "name": "delegateBySig",
      "outputs": [],
      "stateMutability": "nonpayable",
      "type": "function"
    },
    {
      "inputs": [
        {
          "internalType": "address",
          "name": "delegator",
          "type": "address"
        }
      ],
      "name": "delegates",
      "outputs": [
        {
          "internalType": "address",
          "name": "",
          "type": "address"
        }
      ],
      "stateMutability": "view",
      "type": "function"
    },
    {
      "inputs": [
        {
          "internalType": "address",
          "name": "account",
          "type": "address"
        }
      ],
      "name": "getCurrentVotes",
      "outputs": [
        {
          "internalType": "uint256",
          "name": "",
          "type": "uint256"
        }
      ],
      "stateMutability": "view",
      "type": "function"
    },
    {
      "inputs": [],
      "name": "getOwner",
      "outputs": [
        {
          "internalType": "address",
          "name": "",
          "type": "address"
        }
      ],
      "stateMutability": "view",
      "type": "function"
    },
    {
      "inputs": [
        {
          "internalType": "address",
          "name": "account",
          "type": "address"
        },
        {
          "internalType": "uint256",
          "name": "blockNumber",
          "type": "uint256"
        }
      ],
      "name": "getPriorVotes",
      "outputs": [
        {
          "internalType": "uint256",
          "name": "",
          "type": "uint256"
        }
      ],
      "stateMutability": "view",
      "type": "function"
    },
    {
      "inputs": [
        {
          "internalType": "address",
          "name": "spender",
          "type": "address"
        },
        {
          "internalType": "uint256",
          "name": "addedValue",
          "type": "uint256"
        }
      ],
      "name": "increaseAllowance",
      "outputs": [
        {
          "internalType": "bool",
          "name": "",
          "type": "bool"
        }
      ],
      "stateMutability": "nonpayable",
      "type": "function"
    },
    {
      "inputs": [
        {
          "internalType": "address",
          "name": "_to",
          "type": "address"
        },
        {
          "internalType": "uint256",
          "name": "_amount",
          "type": "uint256"
        }
      ],
      "name": "mint",
      "outputs": [],
      "stateMutability": "nonpayable",
      "type": "function"
    },
    {
      "inputs": [
        {
          "internalType": "uint256",
          "name": "amount",
          "type": "uint256"
        }
      ],
      "name": "mint",
      "outputs": [
        {
          "internalType": "bool",
          "name": "",
          "type": "bool"
        }
      ],
      "stateMutability": "nonpayable",
      "type": "function"
    },
    {
      "inputs": [],
      "name": "name",
      "outputs": [
        {
          "internalType": "string",
          "name": "",
          "type": "string"
        }
      ],
      "stateMutability": "view",
      "type": "function"
    },
    {
      "inputs": [
        {
          "internalType": "address",
          "name": "",
          "type": "address"
        }
      ],
      "name": "nonces",
      "outputs": [
        {
          "internalType": "uint256",
          "name": "",
          "type": "uint256"
        }
      ],
      "stateMutability": "view",
      "type": "function"
    },
    {
      "inputs": [
        {
          "internalType": "address",
          "name": "",
          "type": "address"
        }
      ],
      "name": "numCheckpoints",
      "outputs": [
        {
          "internalType": "uint32",
          "name": "",
          "type": "uint32"
        }
      ],
      "stateMutability": "view",
      "type": "function"
    },
    {
      "inputs": [],
      "name": "owner",
      "outputs": [
        {
          "internalType": "address",
          "name": "",
          "type": "address"
        }
      ],
      "stateMutability": "view",
      "type": "function"
    },
    {
      "inputs": [],
      "name": "renounceOwnership",
      "outputs": [],
      "stateMutability": "nonpayable",
      "type": "function"
    },
    {
      "inputs": [],
      "name": "ridi",
      "outputs": [
        {
          "internalType": "contract RIDIToken",
          "name": "",
          "type": "address"
        }
      ],
      "stateMutability": "view",
      "type": "function"
    },
    {
      "inputs": [
        {
          "internalType": "address",
          "name": "_to",
          "type": "address"
        },
        {
          "internalType": "uint256",
          "name": "_amount",
          "type": "uint256"
        }
      ],
      "name": "safeRidiTransfer",
      "outputs": [],
      "stateMutability": "nonpayable",
      "type": "function"
    },
    {
      "inputs": [],
      "name": "symbol",
      "outputs": [
        {
          "internalType": "string",
          "name": "",
          "type": "string"
        }
      ],
      "stateMutability": "view",
      "type": "function"
    },
    {
      "inputs": [],
      "name": "totalSupply",
      "outputs": [
        {
          "internalType": "uint256",
          "name": "",
          "type": "uint256"
        }
      ],
      "stateMutability": "view",
      "type": "function"
    },
    {
      "inputs": [
        {
          "internalType": "address",
          "name": "recipient",
          "type": "address"
        },
        {
          "internalType": "uint256",
          "name": "amount",
          "type": "uint256"
        }
      ],
      "name": "transfer",
      "outputs": [
        {
          "internalType": "bool",
          "name": "",
          "type": "bool"
        }
      ],
      "stateMutability": "nonpayable",
      "type": "function"
    },
    {
      "inputs": [
        {
          "internalType": "address",
          "name": "sender",
          "type": "address"
        },
        {
          "internalType": "address",
          "name": "recipient",
          "type": "address"
        },
        {
          "internalType": "uint256",
          "name": "amount",
          "type": "uint256"
        }
      ],
      "name": "transferFrom",
      "outputs": [
        {
          "internalType": "bool",
          "name": "",
          "type": "bool"
        }
      ],
      "stateMutability": "nonpayable",
      "type": "function"
    },
    {
      "inputs": [
        {
          "internalType": "address",
          "name": "newOwner",
          "type": "address"
        }
      ],
      "name": "transferOwnership",
      "outputs": [],
      "stateMutability": "nonpayable",
      "type": "function"
    }
  ],
  "bytecode": "0x60806040523480156200001157600080fd5b5060405162002a5438038062002a54833981810160405260208110156200003757600080fd5b5051604080518082018252600e81526d29bcb93ab82130b9102a37b5b2b760911b60208281019190915282518084019093526005835264053595255560dc1b908301529060006200008762000136565b600080546001600160a01b0319166001600160a01b0383169081178255604051929350917f8be0079c531659141344cd1fd0a4f28419497f9722a3daafe3b4186f6b6457e0908290a3508151620000e69060049060208501906200013a565b508051620000fc9060059060208401906200013a565b5050600680546001600160a01b0390931661010002610100600160a81b031960ff19909416601217939093169290921790915550620001d6565b3390565b828054600181600116156101000203166002900490600052602060002090601f016020900481019282601f106200017d57805160ff1916838001178555620001ad565b82800160010185558215620001ad579182015b82811115620001ad57825182559160200191906001019062000190565b50620001bb929150620001bf565b5090565b5b80821115620001bb5760008155600101620001c0565b61286e80620001e66000396000f3fe608060405234801561001057600080fd5b50600436106101da5760003560e01c80637ecebe0011610104578063a9059cbb116100a2578063e7a324dc11610071578063e7a324dc146106fd578063f1127ed814610705578063f2fde38b14610764578063fb6a627d14610797576101da565b8063a9059cbb14610602578063b4b5ea571461063b578063c3cda5201461066e578063dd62ed3e146106c2576101da565b806395d89b41116100de57806395d89b411461056b5780639dc29fac14610573578063a0712d68146105ac578063a457c2d7146105c9576101da565b80637ecebe0014610528578063893d20e81461055b5780638da5cb5b14610563576101da565b8063395093511161017c5780636fcfff451161014b5780636fcfff451461046857806370a08231146104b4578063715018a6146104e7578063782d6fe1146104ef576101da565b8063395093511461036757806340c10f19146103a0578063587cde1e146103d95780635c19a95c14610435576101da565b806318ba97d3116101b857806318ba97d3146102c357806320606b70146102fe57806323b872dd14610306578063313ce56714610349576101da565b806306fdde03146101df578063095ea7b31461025c57806318160ddd146102a9575b600080fd5b6101e761079f565b6040805160208082528351818301528351919283929083019185019080838360005b83811015610221578181015183820152602001610209565b50505050905090810190601f16801561024e5780820380516001836020036101000a031916815260200191505b509250505060405180910390f35b6102956004803603604081101561027257600080fd5b5073ffffffffffffffffffffffffffffffffffffffff8135169060200135610853565b604080519115158252519081900360200190f35b6102b1610871565b60408051918252519081900360200190f35b6102fc600480360360408110156102d957600080fd5b5073ffffffffffffffffffffffffffffffffffffffff8135169060200135610877565b005b6102b1610b1c565b6102956004803603606081101561031c57600080fd5b5073ffffffffffffffffffffffffffffffffffffffff813581169160208101359091169060400135610b40565b610351610be1565b6040805160ff9092168252519081900360200190f35b6102956004803603604081101561037d57600080fd5b5073ffffffffffffffffffffffffffffffffffffffff8135169060200135610bea565b6102fc600480360360408110156103b657600080fd5b5073ffffffffffffffffffffffffffffffffffffffff8135169060200135610c45565b61040c600480360360208110156103ef57600080fd5b503573ffffffffffffffffffffffffffffffffffffffff16610d16565b6040805173ffffffffffffffffffffffffffffffffffffffff9092168252519081900360200190f35b6102fc6004803603602081101561044b57600080fd5b503573ffffffffffffffffffffffffffffffffffffffff16610d41565b61049b6004803603602081101561047e57600080fd5b503573ffffffffffffffffffffffffffffffffffffffff16610d4e565b6040805163ffffffff9092168252519081900360200190f35b6102b1600480360360208110156104ca57600080fd5b503573ffffffffffffffffffffffffffffffffffffffff16610d66565b6102fc610d8e565b6102b16004803603604081101561050557600080fd5b5073ffffffffffffffffffffffffffffffffffffffff8135169060200135610e8e565b6102b16004803603602081101561053e57600080fd5b503573ffffffffffffffffffffffffffffffffffffffff16611158565b61040c61116a565b61040c611179565b6101e7611195565b6102fc6004803603604081101561058957600080fd5b5073ffffffffffffffffffffffffffffffffffffffff8135169060200135611214565b610295600480360360208110156105c257600080fd5b50356112af565b610295600480360360408110156105df57600080fd5b5073ffffffffffffffffffffffffffffffffffffffff813516906020013561135b565b6102956004803603604081101561061857600080fd5b5073ffffffffffffffffffffffffffffffffffffffff81351690602001356113d0565b6102b16004803603602081101561065157600080fd5b503573ffffffffffffffffffffffffffffffffffffffff166113e4565b6102fc600480360360c081101561068457600080fd5b5073ffffffffffffffffffffffffffffffffffffffff8135169060208101359060408101359060ff6060820135169060808101359060a00135611480565b6102b1600480360360408110156106d857600080fd5b5073ffffffffffffffffffffffffffffffffffffffff813581169160200135166117bf565b6102b16117f7565b6107446004803603604081101561071b57600080fd5b50803573ffffffffffffffffffffffffffffffffffffffff16906020013563ffffffff1661181b565b6040805163ffffffff909316835260208301919091528051918290030190f35b6102fc6004803603602081101561077a57600080fd5b503573ffffffffffffffffffffffffffffffffffffffff16611848565b61040c6118e2565b60048054604080516020601f60027fffffffffffffffffffffffffffffffffffffffffffffffffffffffffffffffff6101006001881615020190951694909404938401819004810282018101909252828152606093909290918301828280156108495780601f1061081e57610100808354040283529160200191610849565b820191906000526020600020905b81548152906001019060200180831161082c57829003601f168201915b5050505050905090565b6000610867610860611903565b8484611907565b5060015b92915050565b60035490565b61087f611903565b60005473ffffffffffffffffffffffffffffffffffffffff90811691161461090857604080517f08c379a000000000000000000000000000000000000000000000000000000000815260206004820181905260248201527f4f776e61626c653a2063616c6c6572206973206e6f7420746865206f776e6572604482015290519081900360640190fd5b600654604080517f70a082310000000000000000000000000000000000000000000000000000000081523060048201529051600092610100900473ffffffffffffffffffffffffffffffffffffffff16916370a08231916024808301926020929190829003018186803b15801561097e57600080fd5b505afa158015610992573d6000803e3d6000fd5b505050506040513d60208110156109a857600080fd5b5051905080821115610a6857600654604080517fa9059cbb00000000000000000000000000000000000000000000000000000000815273ffffffffffffffffffffffffffffffffffffffff86811660048301526024820185905291516101009093049091169163a9059cbb916044808201926020929091908290030181600087803b158015610a3657600080fd5b505af1158015610a4a573d6000803e3d6000fd5b505050506040513d6020811015610a6057600080fd5b50610b179050565b600654604080517fa9059cbb00000000000000000000000000000000000000000000000000000000815273ffffffffffffffffffffffffffffffffffffffff86811660048301526024820186905291516101009093049091169163a9059cbb916044808201926020929091908290030181600087803b158015610aea57600080fd5b505af1158015610afe573d6000803e3d6000fd5b505050506040513d6020811015610b1457600080fd5b50505b505050565b7f8cad95687ba82c2ce50e74f7b754645e5117c3a5bec8151c0726d5857980a86681565b6000610b4d848484611a4e565b610bd784610b59611903565b610bd2856040518060600160405280602881526020016126f66028913973ffffffffffffffffffffffffffffffffffffffff8a16600090815260026020526040812090610ba4611903565b73ffffffffffffffffffffffffffffffffffffffff1681526020810191909152604001600020549190611c15565b611907565b5060019392505050565b60065460ff1690565b6000610867610bf7611903565b84610bd28560026000610c08611903565b73ffffffffffffffffffffffffffffffffffffffff908116825260208083019390935260409182016000908120918c168152925290205490611cc6565b610c4d611903565b60005473ffffffffffffffffffffffffffffffffffffffff908116911614610cd657604080517f08c379a000000000000000000000000000000000000000000000000000000000815260206004820181905260248201527f4f776e61626c653a2063616c6c6572206973206e6f7420746865206f776e6572604482015290519081900360640190fd5b610ce08282611d3a565b73ffffffffffffffffffffffffffffffffffffffff808316600090815260076020526040812054610d12921683611e61565b5050565b73ffffffffffffffffffffffffffffffffffffffff9081166000908152600760205260409020541690565b610d4b3382612042565b50565b60096020526000908152604090205463ffffffff1681565b73ffffffffffffffffffffffffffffffffffffffff1660009081526001602052604090205490565b610d96611903565b60005473ffffffffffffffffffffffffffffffffffffffff908116911614610e1f57604080517f08c379a000000000000000000000000000000000000000000000000000000000815260206004820181905260248201527f4f776e61626c653a2063616c6c6572206973206e6f7420746865206f776e6572604482015290519081900360640190fd5b6000805460405173ffffffffffffffffffffffffffffffffffffffff909116907f8be0079c531659141344cd1fd0a4f28419497f9722a3daafe3b4186f6b6457e0908390a3600080547fffffffffffffffffffffffff0000000000000000000000000000000000000000169055565b6000438210610ee8576040517f08c379a00000000000000000000000000000000000000000000000000000000081526004018080602001828103825260278152602001806126a96027913960400191505060405180910390fd5b73ffffffffffffffffffffffffffffffffffffffff831660009081526009602052604090205463ffffffff1680610f2357600091505061086b565b73ffffffffffffffffffffffffffffffffffffffff8416600090815260086020908152604080832063ffffffff7fffffffffffffffffffffffffffffffffffffffffffffffffffffffffffffffff860181168552925290912054168310610fe85773ffffffffffffffffffffffffffffffffffffffff841660009081526008602090815260408083207fffffffffffffffffffffffffffffffffffffffffffffffffffffffffffffffff9490940163ffffffff1683529290522060010154905061086b565b73ffffffffffffffffffffffffffffffffffffffff8416600090815260086020908152604080832083805290915290205463ffffffff1683101561103057600091505061086b565b60007fffffffffffffffffffffffffffffffffffffffffffffffffffffffffffffffff82015b8163ffffffff168163ffffffff16111561111457600282820363ffffffff160481036110806125ee565b5073ffffffffffffffffffffffffffffffffffffffff8716600090815260086020908152604080832063ffffffff8086168552908352928190208151808301909252805490931680825260019093015491810191909152908714156110ef5760200151945061086b9350505050565b805163ffffffff168711156111065781935061110d565b6001820392505b5050611056565b5073ffffffffffffffffffffffffffffffffffffffff8516600090815260086020908152604080832063ffffffff9094168352929052206001015491505092915050565b600a6020526000908152604090205481565b6000611174611179565b905090565b60005473ffffffffffffffffffffffffffffffffffffffff1690565b60058054604080516020601f60027fffffffffffffffffffffffffffffffffffffffffffffffffffffffffffffffff6101006001881615020190951694909404938401819004810282018101909252828152606093909290918301828280156108495780601f1061081e57610100808354040283529160200191610849565b61121c611903565b60005473ffffffffffffffffffffffffffffffffffffffff9081169116146112a557604080517f08c379a000000000000000000000000000000000000000000000000000000000815260206004820181905260248201527f4f776e61626c653a2063616c6c6572206973206e6f7420746865206f776e6572604482015290519081900360640190fd5b610ce08282612109565b60006112b9611903565b60005473ffffffffffffffffffffffffffffffffffffffff90811691161461134257604080517f08c379a000000000000000000000000000000000000000000000000000000000815260206004820181905260248201527f4f776e61626c653a2063616c6c6572206973206e6f7420746865206f776e6572604482015290519081900360640190fd5b61135361134d611903565b83611d3a565b506001919050565b6000610867611368611903565b84610bd2856040518060600160405280602581526020016127af6025913960026000611392611903565b73ffffffffffffffffffffffffffffffffffffffff908116825260208083019390935260409182016000908120918d16815292529020549190611c15565b60006108676113dd611903565b8484611a4e565b73ffffffffffffffffffffffffffffffffffffffff811660009081526009602052604081205463ffffffff168061141c576000611479565b73ffffffffffffffffffffffffffffffffffffffff8316600090815260086020908152604080832063ffffffff7fffffffffffffffffffffffffffffffffffffffffffffffffffffffffffffffff86011684529091529020600101545b9392505050565b60007f8cad95687ba82c2ce50e74f7b754645e5117c3a5bec8151c0726d5857980a8666114ab61079f565b805190602001206114ba612247565b60408051602080820195909552808201939093526060830191909152306080808401919091528151808403909101815260a0830182528051908401207fe48329057bfd03d55e49b547132e39cffd9c1820ad7b9d4c5307691425d15adf60c084015273ffffffffffffffffffffffffffffffffffffffff8b1660e084015261010083018a90526101208084018a905282518085039091018152610140840183528051908501207f19010000000000000000000000000000000000000000000000000000000000006101608501526101628401829052610182808501829052835180860390910181526101a285018085528151918701919091206000918290526101c2860180865281905260ff8b166101e287015261020286018a905261022286018990529351929650909492939092600192610242808401937fffffffffffffffffffffffffffffffffffffffffffffffffffffffffffffffe08301929081900390910190855afa158015611633573d6000803e3d6000fd5b50506040517fffffffffffffffffffffffffffffffffffffffffffffffffffffffffffffffe0015191505073ffffffffffffffffffffffffffffffffffffffff81166116ca576040517f08c379a00000000000000000000000000000000000000000000000000000000081526004018080602001828103825260268152602001806126d06026913960400191505060405180910390fd5b73ffffffffffffffffffffffffffffffffffffffff81166000908152600a60205260409020805460018101909155891461174f576040517f08c379a000000000000000000000000000000000000000000000000000000000815260040180806020018281038252602281526020018061271e6022913960400191505060405180910390fd5b874211156117a8576040517f08c379a00000000000000000000000000000000000000000000000000000000081526004018080602001828103825260268152602001806127406026913960400191505060405180910390fd5b6117b2818b612042565b505050505b505050505050565b73ffffffffffffffffffffffffffffffffffffffff918216600090815260026020908152604080832093909416825291909152205490565b7fe48329057bfd03d55e49b547132e39cffd9c1820ad7b9d4c5307691425d15adf81565b60086020908152600092835260408084209091529082529020805460019091015463ffffffff9091169082565b611850611903565b60005473ffffffffffffffffffffffffffffffffffffffff9081169116146118d957604080517f08c379a000000000000000000000000000000000000000000000000000000000815260206004820181905260248201527f4f776e61626c653a2063616c6c6572206973206e6f7420746865206f776e6572604482015290519081900360640190fd5b610d4b8161224b565b600654610100900473ffffffffffffffffffffffffffffffffffffffff1681565b3390565b73ffffffffffffffffffffffffffffffffffffffff8316611973576040517f08c379a000000000000000000000000000000000000000000000000000000000815260040180806020018281038252602481526020018061262b6024913960400191505060405180910390fd5b73ffffffffffffffffffffffffffffffffffffffff82166119df576040517f08c379a00000000000000000000000000000000000000000000000000000000081526004018080602001828103825260228152602001806128176022913960400191505060405180910390fd5b73ffffffffffffffffffffffffffffffffffffffff808416600081815260026020908152604080832094871680845294825291829020859055815185815291517f8c5be1e5ebec7d5bd14f71427d1e84f3dd0314c0f7b2291e5b200ac8c7c3b9259281900390910190a3505050565b73ffffffffffffffffffffffffffffffffffffffff8316611aba576040517f08c379a00000000000000000000000000000000000000000000000000000000081526004018080602001828103825260258152602001806126066025913960400191505060405180910390fd5b73ffffffffffffffffffffffffffffffffffffffff8216611b26576040517f08c379a000000000000000000000000000000000000000000000000000000000815260040180806020018281038252602381526020018061278c6023913960400191505060405180910390fd5b611b70816040518060600160405280602681526020016127666026913973ffffffffffffffffffffffffffffffffffffffff86166000908152600160205260409020549190611c15565b73ffffffffffffffffffffffffffffffffffffffff8085166000908152600160205260408082209390935590841681522054611bac9082611cc6565b73ffffffffffffffffffffffffffffffffffffffff80841660008181526001602090815260409182902094909455805185815290519193928716927fddf252ad1be2c89b69c2b068fc378daa952ba7f163c4a11628f55a4df523b3ef92918290030190a3505050565b60008184841115611cbe576040517f08c379a00000000000000000000000000000000000000000000000000000000081526004018080602001828103825283818151815260200191508051906020019080838360005b83811015611c83578181015183820152602001611c6b565b50505050905090810190601f168015611cb05780820380516001836020036101000a031916815260200191505b509250505060405180910390fd5b505050900390565b60008282018381101561147957604080517f08c379a000000000000000000000000000000000000000000000000000000000815260206004820152601b60248201527f536166654d6174683a206164646974696f6e206f766572666c6f770000000000604482015290519081900360640190fd5b73ffffffffffffffffffffffffffffffffffffffff8216611dbc57604080517f08c379a000000000000000000000000000000000000000000000000000000000815260206004820152601f60248201527f42455032303a206d696e7420746f20746865207a65726f206164647265737300604482015290519081900360640190fd5b600354611dc99082611cc6565b60035573ffffffffffffffffffffffffffffffffffffffff8216600090815260016020526040902054611dfc9082611cc6565b73ffffffffffffffffffffffffffffffffffffffff831660008181526001602090815260408083209490945583518581529351929391927fddf252ad1be2c89b69c2b068fc378daa952ba7f163c4a11628f55a4df523b3ef9281900390910190a35050565b8173ffffffffffffffffffffffffffffffffffffffff168373ffffffffffffffffffffffffffffffffffffffff1614158015611e9d5750600081115b15610b175773ffffffffffffffffffffffffffffffffffffffff831615611f745773ffffffffffffffffffffffffffffffffffffffff831660009081526009602052604081205463ffffffff169081611ef7576000611f54565b73ffffffffffffffffffffffffffffffffffffffff8516600090815260086020908152604080832063ffffffff7fffffffffffffffffffffffffffffffffffffffffffffffffffffffffffffffff87011684529091529020600101545b90506000611f628285612344565b9050611f7086848484612386565b5050505b73ffffffffffffffffffffffffffffffffffffffff821615610b175773ffffffffffffffffffffffffffffffffffffffff821660009081526009602052604081205463ffffffff169081611fc9576000612026565b73ffffffffffffffffffffffffffffffffffffffff8416600090815260086020908152604080832063ffffffff7fffffffffffffffffffffffffffffffffffffffffffffffffffffffffffffffff87011684529091529020600101545b905060006120348285611cc6565b90506117b785848484612386565b73ffffffffffffffffffffffffffffffffffffffff8083166000908152600760205260408120549091169061207684610d66565b73ffffffffffffffffffffffffffffffffffffffff85811660008181526007602052604080822080547fffffffffffffffffffffffff000000000000000000000000000000000000000016898616908117909155905194955093928616927f3134e8a2e6d97e929a7e54011ea5485d7d196dd5f0ba4d4ef95803e8e3fc257f9190a4612103828483611e61565b50505050565b73ffffffffffffffffffffffffffffffffffffffff8216612175576040517f08c379a00000000000000000000000000000000000000000000000000000000081526004018080602001828103825260218152602001806127d46021913960400191505060405180910390fd5b6121bf816040518060600160405280602281526020016127f56022913973ffffffffffffffffffffffffffffffffffffffff85166000908152600160205260409020549190611c15565b73ffffffffffffffffffffffffffffffffffffffff83166000908152600160205260409020556003546121f29082612344565b60035560408051828152905160009173ffffffffffffffffffffffffffffffffffffffff8516917fddf252ad1be2c89b69c2b068fc378daa952ba7f163c4a11628f55a4df523b3ef9181900360200190a35050565b4690565b73ffffffffffffffffffffffffffffffffffffffff81166122b7576040517f08c379a000000000000000000000000000000000000000000000000000000000815260040180806020018281038252602681526020018061264f6026913960400191505060405180910390fd5b6000805460405173ffffffffffffffffffffffffffffffffffffffff808516939216917f8be0079c531659141344cd1fd0a4f28419497f9722a3daafe3b4186f6b6457e091a3600080547fffffffffffffffffffffffff00000000000000000000000000000000000000001673ffffffffffffffffffffffffffffffffffffffff92909216919091179055565b600061147983836040518060400160405280601e81526020017f536166654d6174683a207375627472616374696f6e206f766572666c6f770000815250611c15565b60006123aa4360405180606001604052806034815260200161267560349139612576565b905060008463ffffffff1611801561241e575073ffffffffffffffffffffffffffffffffffffffff8516600090815260086020908152604080832063ffffffff7fffffffffffffffffffffffffffffffffffffffffffffffffffffffffffffffff8901811685529252909120548282169116145b156124865773ffffffffffffffffffffffffffffffffffffffff8516600090815260086020908152604080832063ffffffff7fffffffffffffffffffffffffffffffffffffffffffffffffffffffffffffffff8901168452909152902060010182905561251f565b60408051808201825263ffffffff8084168252602080830186815273ffffffffffffffffffffffffffffffffffffffff8a166000818152600884528681208b861682528452868120955186549086167fffffffffffffffffffffffffffffffffffffffffffffffffffffffff00000000918216178755925160019687015590815260099092529390208054928801909116919092161790555b6040805184815260208101849052815173ffffffffffffffffffffffffffffffffffffffff8816927fdec2bacdd2f05b59de34da9b523dff8be42e5e38e818c82fdb0bae774387a724928290030190a25050505050565b60008164010000000084106125e6576040517f08c379a0000000000000000000000000000000000000000000000000000000008152602060048201818152835160248401528351909283926044909101919085019080838360008315611c83578181015183820152602001611c6b565b509192915050565b60408051808201909152600080825260208201529056fe42455032303a207472616e736665722066726f6d20746865207a65726f206164647265737342455032303a20617070726f76652066726f6d20746865207a65726f20616464726573734f776e61626c653a206e6577206f776e657220697320746865207a65726f2061646472657373524944493a3a5f7772697465436865636b706f696e743a20626c6f636b206e756d62657220657863656564732033322062697473524944493a3a6765745072696f72566f7465733a206e6f74207965742064657465726d696e6564524944493a3a64656c656761746542795369673a20696e76616c6964207369676e617475726542455032303a207472616e7366657220616d6f756e74206578636565647320616c6c6f77616e6365524944493a3a64656c656761746542795369673a20696e76616c6964206e6f6e6365524944493a3a64656c656761746542795369673a207369676e6174757265206578706972656442455032303a207472616e7366657220616d6f756e7420657863656564732062616c616e636542455032303a207472616e7366657220746f20746865207a65726f206164647265737342455032303a2064656372656173656420616c6c6f77616e63652062656c6f77207a65726f42455032303a206275726e2066726f6d20746865207a65726f206164647265737342455032303a206275726e20616d6f756e7420657863656564732062616c616e636542455032303a20617070726f766520746f20746865207a65726f2061646472657373a26469706673582212207b4d8f2fecd4123dbe4d03d93b09b67a6649c507faa09bf7fd3efc6256b53d7664736f6c634300060c0033",
  "linkReferences": {},
  "deployedLinkReferences": {}
}